{
  "_format": "hh-sol-artifact-1",
  "contractName": "VehicleManagement",
  "sourceName": "contracts/VehicleManagement.sol",
  "abi": [
    {
      "inputs": [
        {
          "internalType": "string",
          "name": "_make",
          "type": "string"
        },
        {
          "internalType": "string",
          "name": "_model",
          "type": "string"
        },
        {
          "internalType": "uint256",
          "name": "_year",
          "type": "uint256"
        }
      ],
      "name": "addVehicle",
      "outputs": [],
      "stateMutability": "nonpayable",
      "type": "function"
    },
    {
      "inputs": [
        {
          "internalType": "uint256",
          "name": "_id",
          "type": "uint256"
        }
      ],
      "name": "buyVehicle",
      "outputs": [],
      "stateMutability": "payable",
      "type": "function"
    },
    {
      "inputs": [],
      "name": "getBalance",
      "outputs": [
        {
          "internalType": "uint256",
          "name": "",
          "type": "uint256"
        }
      ],
      "stateMutability": "view",
      "type": "function"
    },
    {
      "inputs": [
        {
          "internalType": "address",
          "name": "_user",
          "type": "address"
        }
      ],
      "name": "getUserDetails",
      "outputs": [
        {
          "internalType": "string",
          "name": "",
          "type": "string"
        },
        {
          "internalType": "uint256",
          "name": "",
          "type": "uint256"
        },
        {
          "internalType": "string",
          "name": "",
          "type": "string"
        }
      ],
      "stateMutability": "view",
      "type": "function"
    },
    {
      "inputs": [
        {
          "internalType": "uint256",
          "name": "_id",
          "type": "uint256"
        }
      ],
      "name": "getVehicleOwnerHistory",
      "outputs": [
        {
          "internalType": "address[]",
          "name": "",
          "type": "address[]"
        }
      ],
      "stateMutability": "view",
      "type": "function"
    },
    {
      "inputs": [
        {
          "internalType": "string",
          "name": "name",
          "type": "string"
        },
        {
          "internalType": "uint256",
          "name": "age",
          "type": "uint256"
        },
        {
          "internalType": "string",
          "name": "email",
          "type": "string"
        }
      ],
      "name": "register",
      "outputs": [],
      "stateMutability": "nonpayable",
      "type": "function"
    },
    {
      "inputs": [
        {
          "internalType": "uint256",
          "name": "_id",
          "type": "uint256"
        },
        {
          "internalType": "uint256",
          "name": "_price",
          "type": "uint256"
        }
      ],
      "name": "setVehiclePrice",
      "outputs": [],
      "stateMutability": "nonpayable",
      "type": "function"
    },
    {
      "inputs": [],
      "name": "totalVehicles",
      "outputs": [
        {
          "internalType": "uint256",
          "name": "",
          "type": "uint256"
        }
      ],
      "stateMutability": "view",
      "type": "function"
    },
    {
      "inputs": [
        {
          "internalType": "uint256",
          "name": "_id",
          "type": "uint256"
        },
        {
          "internalType": "address",
          "name": "_newOwner",
          "type": "address"
        }
      ],
      "name": "transferVehicle",
      "outputs": [],
      "stateMutability": "nonpayable",
      "type": "function"
    },
    {
      "inputs": [
        {
          "internalType": "address",
          "name": "",
          "type": "address"
        }
      ],
      "name": "userdetails",
      "outputs": [
        {
          "internalType": "string",
          "name": "name",
          "type": "string"
        },
        {
          "internalType": "uint256",
          "name": "age",
          "type": "uint256"
        },
        {
          "internalType": "string",
          "name": "email",
          "type": "string"
        },
        {
          "internalType": "bool",
          "name": "exists",
          "type": "bool"
        }
      ],
      "stateMutability": "view",
      "type": "function"
    },
    {
      "inputs": [
        {
          "internalType": "address",
          "name": "",
          "type": "address"
        }
      ],
      "name": "users",
      "outputs": [
        {
          "internalType": "address",
          "name": "userAdd",
          "type": "address"
        },
        {
          "internalType": "uint256",
          "name": "currentVehicles",
          "type": "uint256"
        }
      ],
      "stateMutability": "view",
      "type": "function"
    },
    {
      "inputs": [
        {
          "internalType": "address",
          "name": "",
          "type": "address"
        },
        {
          "internalType": "uint256",
          "name": "",
          "type": "uint256"
        }
      ],
      "name": "vehicleOwned",
      "outputs": [
        {
          "internalType": "uint256",
          "name": "",
          "type": "uint256"
        }
      ],
      "stateMutability": "view",
      "type": "function"
    },
    {
      "inputs": [
        {
          "internalType": "uint256",
          "name": "",
          "type": "uint256"
        }
      ],
      "name": "vehicles",
      "outputs": [
        {
          "internalType": "uint256",
          "name": "id",
          "type": "uint256"
        },
        {
          "internalType": "string",
          "name": "make",
          "type": "string"
        },
        {
          "internalType": "string",
          "name": "model",
          "type": "string"
        },
        {
          "internalType": "uint256",
          "name": "year",
          "type": "uint256"
        },
        {
          "internalType": "address",
          "name": "owner",
          "type": "address"
        },
        {
          "internalType": "uint256",
          "name": "ownerHistoryCount",
          "type": "uint256"
        },
        {
          "internalType": "uint256",
          "name": "price",
          "type": "uint256"
        },
        {
          "internalType": "bool",
          "name": "priceSet",
          "type": "bool"
        }
      ],
      "stateMutability": "view",
      "type": "function"
    },
    {
      "stateMutability": "payable",
      "type": "receive"
    }
  ],
  "bytecode": "0x608060405260008060006101000a81548160ff02191690831515021790555034801561002a57600080fd5b506125658061003a6000396000f3fe6080604052600436106100c65760003560e01c8063637a08321161007f578063a87430ba11610059578063a87430ba14610265578063b8ba95fa146102a3578063cc3d967b146102e7578063ea9d990114610326576100cd565b8063637a0832146101d357806375c0ad2b146101fc5780637d02edad14610225576100cd565b806302152d02146100d25780630651ada7146100fd57806312065fe014610126578063251781e71461015157806336ce09201461017a578063398d7e6314610196576100cd565b366100cd57005b600080fd5b3480156100de57600080fd5b506100e7610363565b6040516100f491906115e8565b60405180910390f35b34801561010957600080fd5b50610124600480360381019061011f9190611789565b610369565b005b34801561013257600080fd5b5061013b610554565b60405161014891906115e8565b60405180910390f35b34801561015d57600080fd5b5061017860048036038101906101739190611814565b61055c565b005b610194600480360381019061018f9190611854565b6106b8565b005b3480156101a257600080fd5b506101bd60048036038101906101b89190611854565b6109a9565b6040516101ca9190611971565b60405180910390f35b3480156101df57600080fd5b506101fa60048036038101906101f59190611993565b610b18565b005b34801561020857600080fd5b50610223600480360381019061021e9190611a4a565b610c69565b005b34801561023157600080fd5b5061024c60048036038101906102479190611a8a565b611007565b60405161025c9493929190611b51565b60405180910390f35b34801561027157600080fd5b5061028c60048036038101906102879190611a8a565b611154565b60405161029a929190611bb3565b60405180910390f35b3480156102af57600080fd5b506102ca60048036038101906102c59190611854565b611198565b6040516102de989796959493929190611bdc565b60405180910390f35b3480156102f357600080fd5b5061030e60048036038101906103099190611a8a565b61131d565b60405161031d93929190611c68565b60405180910390f35b34801561033257600080fd5b5061034d60048036038101906103489190611cad565b61159e565b60405161035a91906115e8565b60405180910390f35b60055481565b6000600260003373ffffffffffffffffffffffffffffffffffffffff1673ffffffffffffffffffffffffffffffffffffffff1681526020019081526020016000209050600060016000600554815260200190815260200160002090506005548160000181905550848160010190816103e19190611ef9565b50838160020190816103f39190611ef9565b50828160030181905550338160040160006101000a81548173ffffffffffffffffffffffffffffffffffffffff021916908373ffffffffffffffffffffffffffffffffffffffff16021790555060018160060181905550338160050160008081526020019081526020016000206000600554815260200190815260200160002060006101000a81548173ffffffffffffffffffffffffffffffffffffffff021916908373ffffffffffffffffffffffffffffffffffffffff160217905550600560008154809291906104c490611ffa565b91905055508160010160008154809291906104de90611ffa565b9190505550600460003373ffffffffffffffffffffffffffffffffffffffff1673ffffffffffffffffffffffffffffffffffffffff168152602001908152602001600020816000015490806001815401808255809150506001900390600052602060002001600090919091909150555050505050565b600047905090565b6000600260003373ffffffffffffffffffffffffffffffffffffffff1673ffffffffffffffffffffffffffffffffffffffff168152602001908152602001600020905060055483106105e3576040517f08c379a00000000000000000000000000000000000000000000000000000000081526004016105da9061208e565b60405180910390fd5b60006001600085815260200190815260200160002090503373ffffffffffffffffffffffffffffffffffffffff168160040160009054906101000a900473ffffffffffffffffffffffffffffffffffffffff1673ffffffffffffffffffffffffffffffffffffffff161461068c576040517f08c379a000000000000000000000000000000000000000000000000000000000815260040161068390612120565b60405180910390fd5b82816007018190555060018160080160006101000a81548160ff02191690831515021790555050505050565b60055481106106fc576040517f08c379a00000000000000000000000000000000000000000000000000000000081526004016106f39061208e565b60405180910390fd5b6000600160008381526020019081526020016000209050600115158160080160009054906101000a900460ff1615151461076b576040517f08c379a00000000000000000000000000000000000000000000000000000000081526004016107629061218c565b60405180910390fd5b600073ffffffffffffffffffffffffffffffffffffffff168160040160009054906101000a900473ffffffffffffffffffffffffffffffffffffffff1673ffffffffffffffffffffffffffffffffffffffff16036107fe576040517f08c379a00000000000000000000000000000000000000000000000000000000081526004016107f5906121f8565b60405180910390fd5b8060070154670de0b6b3a7640000346108179190612247565b14610857576040517f08c379a000000000000000000000000000000000000000000000000000000000815260040161084e906122ea565b60405180910390fd5b60008160040160009054906101000a900473ffffffffffffffffffffffffffffffffffffffff1690508073ffffffffffffffffffffffffffffffffffffffff166108fc349081150290604051600060405180830381858888f193505050501580156108c6573d6000803e3d6000fd5b5060016000806101000a81548160ff0219169083151502179055506000600260008460040160009054906101000a900473ffffffffffffffffffffffffffffffffffffffff1673ffffffffffffffffffffffffffffffffffffffff1673ffffffffffffffffffffffffffffffffffffffff168152602001908152602001600020905080600101600081548092919061095d9061230a565b919050555061096c8433610c69565b60008060006101000a81548160ff02191690831515021790555060008360080160006101000a81548160ff02191690831515021790555050505050565b606060055482106109ef576040517f08c379a00000000000000000000000000000000000000000000000000000000081526004016109e69061208e565b60405180910390fd5b60006001600084815260200190815260200160002090506000816006015467ffffffffffffffff811115610a2657610a25611632565b5b604051908082528060200260200182016040528015610a545781602001602082028036833780820191505090505b50905060005b8260060154811015610b0d57826005016000828152602001908152602001600020600086815260200190815260200160002060009054906101000a900473ffffffffffffffffffffffffffffffffffffffff16828281518110610ac057610abf612333565b5b602002602001019073ffffffffffffffffffffffffffffffffffffffff16908173ffffffffffffffffffffffffffffffffffffffff16815250508080610b0590611ffa565b915050610a5a565b508092505050919050565b600360003373ffffffffffffffffffffffffffffffffffffffff1673ffffffffffffffffffffffffffffffffffffffff16815260200190815260200160002060030160009054906101000a900460ff1615610ba8576040517f08c379a0000000000000000000000000000000000000000000000000000000008152600401610b9f906123ae565b60405180910390fd5b604051806080016040528084815260200183815260200182815260200160011515815250600360003373ffffffffffffffffffffffffffffffffffffffff1673ffffffffffffffffffffffffffffffffffffffff1681526020019081526020016000206000820151816000019081610c209190611ef9565b50602082015181600101556040820151816002019081610c409190611ef9565b5060608201518160030160006101000a81548160ff021916908315150217905550905050505050565b6005548210610cad576040517f08c379a0000000000000000000000000000000000000000000000000000000008152600401610ca49061208e565b60405180910390fd5b6000600260003373ffffffffffffffffffffffffffffffffffffffff1673ffffffffffffffffffffffffffffffffffffffff168152602001908152602001600020905060006001600085815260200190815260200160002090503373ffffffffffffffffffffffffffffffffffffffff168160040160009054906101000a900473ffffffffffffffffffffffffffffffffffffffff1673ffffffffffffffffffffffffffffffffffffffff161480610d7657506001151560008054906101000a900460ff161515145b610db5576040517f08c379a0000000000000000000000000000000000000000000000000000000008152600401610dac90612440565b60405180910390fd5b8281600501600083600601548152602001908152602001600020600086815260200190815260200160002060006101000a81548173ffffffffffffffffffffffffffffffffffffffff021916908373ffffffffffffffffffffffffffffffffffffffff160217905550806006016000815480929190610e3390611ffa565b9190505550816001016000815480929190610e4d90611ffa565b91905055506000600460003373ffffffffffffffffffffffffffffffffffffffff1673ffffffffffffffffffffffffffffffffffffffff168152602001908152602001600020905060005b8180549050811015610f565785828281548110610eb857610eb7612333565b5b906000526020600020015403610f43578160018380549050610eda9190612460565b81548110610eeb57610eea612333565b5b9060005260206000200154828281548110610f0957610f08612333565b5b906000526020600020018190555081805480610f2857610f27612494565b5b60019003818190600052602060002001600090559055610f56565b8080610f4e90611ffa565b915050610e98565b50600460008573ffffffffffffffffffffffffffffffffffffffff1673ffffffffffffffffffffffffffffffffffffffff168152602001908152602001600020859080600181540180825580915050600190039060005260206000200160009091909190915055838260040160006101000a81548173ffffffffffffffffffffffffffffffffffffffff021916908373ffffffffffffffffffffffffffffffffffffffff1602179055505050505050565b600360205280600052604060002060009150905080600001805461102a90611d1c565b80601f016020809104026020016040519081016040528092919081815260200182805461105690611d1c565b80156110a35780601f10611078576101008083540402835291602001916110a3565b820191906000526020600020905b81548152906001019060200180831161108657829003601f168201915b5050505050908060010154908060020180546110be90611d1c565b80601f01602080910402602001604051908101604052809291908181526020018280546110ea90611d1c565b80156111375780601f1061110c57610100808354040283529160200191611137565b820191906000526020600020905b81548152906001019060200180831161111a57829003601f168201915b5050505050908060030160009054906101000a900460ff16905084565b60026020528060005260406000206000915090508060000160009054906101000a900473ffffffffffffffffffffffffffffffffffffffff16908060010154905082565b60016020528060005260406000206000915090508060000154908060010180546111c190611d1c565b80601f01602080910402602001604051908101604052809291908181526020018280546111ed90611d1c565b801561123a5780601f1061120f5761010080835404028352916020019161123a565b820191906000526020600020905b81548152906001019060200180831161121d57829003601f168201915b50505050509080600201805461124f90611d1c565b80601f016020809104026020016040519081016040528092919081815260200182805461127b90611d1c565b80156112c85780601f1061129d576101008083540402835291602001916112c8565b820191906000526020600020905b8154815290600101906020018083116112ab57829003601f168201915b5050505050908060030154908060040160009054906101000a900473ffffffffffffffffffffffffffffffffffffffff16908060060154908060070154908060080160009054906101000a900460ff16905088565b606060006060600360008573ffffffffffffffffffffffffffffffffffffffff1673ffffffffffffffffffffffffffffffffffffffff16815260200190815260200160002060030160009054906101000a900460ff166113b2576040517f08c379a00000000000000000000000000000000000000000000000000000000081526004016113a99061250f565b60405180910390fd5b600360008573ffffffffffffffffffffffffffffffffffffffff1673ffffffffffffffffffffffffffffffffffffffff168152602001908152602001600020600001600360008673ffffffffffffffffffffffffffffffffffffffff1673ffffffffffffffffffffffffffffffffffffffff16815260200190815260200160002060010154600360008773ffffffffffffffffffffffffffffffffffffffff1673ffffffffffffffffffffffffffffffffffffffff16815260200190815260200160002060020182805461148590611d1c565b80601f01602080910402602001604051908101604052809291908181526020018280546114b190611d1c565b80156114fe5780601f106114d3576101008083540402835291602001916114fe565b820191906000526020600020905b8154815290600101906020018083116114e157829003601f168201915b5050505050925080805461151190611d1c565b80601f016020809104026020016040519081016040528092919081815260200182805461153d90611d1c565b801561158a5780601f1061155f5761010080835404028352916020019161158a565b820191906000526020600020905b81548152906001019060200180831161156d57829003601f168201915b505050505090509250925092509193909250565b600460205281600052604060002081815481106115ba57600080fd5b90600052602060002001600091509150505481565b6000819050919050565b6115e2816115cf565b82525050565b60006020820190506115fd60008301846115d9565b92915050565b6000604051905090565b600080fd5b600080fd5b600080fd5b600080fd5b6000601f19601f8301169050919050565b7f4e487b7100000000000000000000000000000000000000000000000000000000600052604160045260246000fd5b61166a82611621565b810181811067ffffffffffffffff8211171561168957611688611632565b5b80604052505050565b600061169c611603565b90506116a88282611661565b919050565b600067ffffffffffffffff8211156116c8576116c7611632565b5b6116d182611621565b9050602081019050919050565b82818337600083830152505050565b60006117006116fb846116ad565b611692565b90508281526020810184848401111561171c5761171b61161c565b5b6117278482856116de565b509392505050565b600082601f83011261174457611743611617565b5b81356117548482602086016116ed565b91505092915050565b611766816115cf565b811461177157600080fd5b50565b6000813590506117838161175d565b92915050565b6000806000606084860312156117a2576117a161160d565b5b600084013567ffffffffffffffff8111156117c0576117bf611612565b5b6117cc8682870161172f565b935050602084013567ffffffffffffffff8111156117ed576117ec611612565b5b6117f98682870161172f565b925050604061180a86828701611774565b9150509250925092565b6000806040838503121561182b5761182a61160d565b5b600061183985828601611774565b925050602061184a85828601611774565b9150509250929050565b60006020828403121561186a5761186961160d565b5b600061187884828501611774565b91505092915050565b600081519050919050565b600082825260208201905092915050565b6000819050602082019050919050565b600073ffffffffffffffffffffffffffffffffffffffff82169050919050565b60006118d8826118ad565b9050919050565b6118e8816118cd565b82525050565b60006118fa83836118df565b60208301905092915050565b6000602082019050919050565b600061191e82611881565b611928818561188c565b93506119338361189d565b8060005b8381101561196457815161194b88826118ee565b975061195683611906565b925050600181019050611937565b5085935050505092915050565b6000602082019050818103600083015261198b8184611913565b905092915050565b6000806000606084860312156119ac576119ab61160d565b5b600084013567ffffffffffffffff8111156119ca576119c9611612565b5b6119d68682870161172f565b93505060206119e786828701611774565b925050604084013567ffffffffffffffff811115611a0857611a07611612565b5b611a148682870161172f565b9150509250925092565b611a27816118cd565b8114611a3257600080fd5b50565b600081359050611a4481611a1e565b92915050565b60008060408385031215611a6157611a6061160d565b5b6000611a6f85828601611774565b9250506020611a8085828601611a35565b9150509250929050565b600060208284031215611aa057611a9f61160d565b5b6000611aae84828501611a35565b91505092915050565b600081519050919050565b600082825260208201905092915050565b60005b83811015611af1578082015181840152602081019050611ad6565b60008484015250505050565b6000611b0882611ab7565b611b128185611ac2565b9350611b22818560208601611ad3565b611b2b81611621565b840191505092915050565b60008115159050919050565b611b4b81611b36565b82525050565b60006080820190508181036000830152611b6b8187611afd565b9050611b7a60208301866115d9565b8181036040830152611b8c8185611afd565b9050611b9b6060830184611b42565b95945050505050565b611bad816118cd565b82525050565b6000604082019050611bc86000830185611ba4565b611bd560208301846115d9565b9392505050565b600061010082019050611bf2600083018b6115d9565b8181036020830152611c04818a611afd565b90508181036040830152611c188189611afd565b9050611c2760608301886115d9565b611c346080830187611ba4565b611c4160a08301866115d9565b611c4e60c08301856115d9565b611c5b60e0830184611b42565b9998505050505050505050565b60006060820190508181036000830152611c828186611afd565b9050611c9160208301856115d9565b8181036040830152611ca38184611afd565b9050949350505050565b60008060408385031215611cc457611cc361160d565b5b6000611cd285828601611a35565b9250506020611ce385828601611774565b9150509250929050565b7f4e487b7100000000000000000000000000000000000000000000000000000000600052602260045260246000fd5b60006002820490506001821680611d3457607f821691505b602082108103611d4757611d46611ced565b5b50919050565b60008190508160005260206000209050919050565b60006020601f8301049050919050565b600082821b905092915050565b600060088302611daf7fffffffffffffffffffffffffffffffffffffffffffffffffffffffffffffffff82611d72565b611db98683611d72565b95508019841693508086168417925050509392505050565b6000819050919050565b6000611df6611df1611dec846115cf565b611dd1565b6115cf565b9050919050565b6000819050919050565b611e1083611ddb565b611e24611e1c82611dfd565b848454611d7f565b825550505050565b600090565b611e39611e2c565b611e44818484611e07565b505050565b5b81811015611e6857611e5d600082611e31565b600181019050611e4a565b5050565b601f821115611ead57611e7e81611d4d565b611e8784611d62565b81016020851015611e96578190505b611eaa611ea285611d62565b830182611e49565b50505b505050565b600082821c905092915050565b6000611ed060001984600802611eb2565b1980831691505092915050565b6000611ee98383611ebf565b9150826002028217905092915050565b611f0282611ab7565b67ffffffffffffffff811115611f1b57611f1a611632565b5b611f258254611d1c565b611f30828285611e6c565b600060209050601f831160018114611f635760008415611f51578287015190505b611f5b8582611edd565b865550611fc3565b601f198416611f7186611d4d565b60005b82811015611f9957848901518255600182019150602085019450602081019050611f74565b86831015611fb65784890151611fb2601f891682611ebf565b8355505b6001600288020188555050505b505050505050565b7f4e487b7100000000000000000000000000000000000000000000000000000000600052601160045260246000fd5b6000612005826115cf565b91507fffffffffffffffffffffffffffffffffffffffffffffffffffffffffffffffff820361203757612036611fcb565b5b600182019050919050565b7f496e76616c69642076656869636c652049440000000000000000000000000000600082015250565b6000612078601283611ac2565b915061208382612042565b602082019050919050565b600060208201905081810360008301526120a78161206b565b9050919050565b7f4f6e6c79207468652063757272656e74206f776e65722063616e20736574207460008201527f6865207072696365206f66207468652076656869636c65000000000000000000602082015250565b600061210a603783611ac2565b9150612115826120ae565b604082019050919050565b60006020820190508181036000830152612139816120fd565b9050919050565b7f56656869636c65206e6f7420666f722073616c65000000000000000000000000600082015250565b6000612176601483611ac2565b915061218182612140565b602082019050919050565b600060208201905081810360008301526121a581612169565b9050919050565b7f56656869636c6520646f6573206e6f7420657869737400000000000000000000600082015250565b60006121e2601683611ac2565b91506121ed826121ac565b602082019050919050565b60006020820190508181036000830152612211816121d5565b9050919050565b7f4e487b7100000000000000000000000000000000000000000000000000000000600052601260045260246000fd5b6000612252826115cf565b915061225d836115cf565b92508261226d5761226c612218565b5b828204905092915050565b7f496e73756666696369656e742066756e647320746f206275792074686520766560008201527f6869636c65000000000000000000000000000000000000000000000000000000602082015250565b60006122d4602583611ac2565b91506122df82612278565b604082019050919050565b60006020820190508181036000830152612303816122c7565b9050919050565b6000612315826115cf565b91506000820361232857612327611fcb565b5b600182039050919050565b7f4e487b7100000000000000000000000000000000000000000000000000000000600052603260045260246000fd5b7f5573657220616c72656164792065786973747300000000000000000000000000600082015250565b6000612398601383611ac2565b91506123a382612362565b602082019050919050565b600060208201905081810360008301526123c78161238b565b9050919050565b7f4f6e6c79207468652063757272656e74206f776e65722063616e207472616e7360008201527f666572207468652076656869636c650000000000000000000000000000000000602082015250565b600061242a602f83611ac2565b9150612435826123ce565b604082019050919050565b600060208201905081810360008301526124598161241d565b9050919050565b600061246b826115cf565b9150612476836115cf565b925082820390508181111561248e5761248d611fcb565b5b92915050565b7f4e487b7100000000000000000000000000000000000000000000000000000000600052603160045260246000fd5b7f5573657220646f6573206e6f7420657869737400000000000000000000000000600082015250565b60006124f9601383611ac2565b9150612504826124c3565b602082019050919050565b60006020820190508181036000830152612528816124ec565b905091905056fea2646970667358221220bde371dbf0cc53e05c5feed53d04913410eb5b8139172b76ef13d237409ae2ce64736f6c63430008130033",
  "linkReferences": {},
  "deployedLinkReferences": {}
}