{
  "_format": "hh-sol-artifact-1",
  "contractName": "VehicleManagement",
  "sourceName": "contracts/VehicleManagement.sol",
  "abi": [
    {
      "inputs": [],
      "stateMutability": "nonpayable",
      "type": "constructor"
    },
    {
      "inputs": [
        {
          "internalType": "string",
          "name": "_numberPlate",
          "type": "string"
        },
        {
          "internalType": "string",
          "name": "_carName",
          "type": "string"
        },
        {
          "internalType": "uint256",
          "name": "_year",
          "type": "uint256"
        },
        {
          "internalType": "address",
          "name": "_address",
          "type": "address"
        }
      ],
      "name": "addVehicle",
      "outputs": [],
      "stateMutability": "nonpayable",
      "type": "function"
    },
    {
      "inputs": [
        {
          "internalType": "string",
          "name": "_numberPlate",
          "type": "string"
        }
      ],
      "name": "buyVehicle",
      "outputs": [],
      "stateMutability": "payable",
      "type": "function"
    },
    {
      "inputs": [],
      "name": "getBalance",
      "outputs": [
        {
          "internalType": "uint256",
          "name": "",
          "type": "uint256"
        }
      ],
      "stateMutability": "view",
      "type": "function"
    },
    {
      "inputs": [
        {
          "internalType": "address",
          "name": "_user",
          "type": "address"
        }
      ],
      "name": "getUserDetails",
      "outputs": [
        {
          "internalType": "string",
          "name": "",
          "type": "string"
        },
        {
          "internalType": "uint256",
          "name": "",
          "type": "uint256"
        },
        {
          "internalType": "string",
          "name": "",
          "type": "string"
        }
      ],
      "stateMutability": "view",
      "type": "function"
    },
    {
      "inputs": [
        {
          "internalType": "string",
          "name": "_numberPlate",
          "type": "string"
        }
      ],
      "name": "getVehicleOwnerHistory",
      "outputs": [
        {
          "internalType": "address[]",
          "name": "",
          "type": "address[]"
        }
      ],
      "stateMutability": "view",
      "type": "function"
    },
    {
      "inputs": [
        {
          "internalType": "string",
          "name": "name",
          "type": "string"
        },
        {
          "internalType": "uint256",
          "name": "age",
          "type": "uint256"
        },
        {
          "internalType": "string",
          "name": "email",
          "type": "string"
        }
      ],
      "name": "register",
      "outputs": [],
      "stateMutability": "nonpayable",
      "type": "function"
    },
    {
      "inputs": [
        {
          "internalType": "string",
          "name": "_numberPlate",
          "type": "string"
        },
        {
          "internalType": "uint256",
          "name": "_price",
          "type": "uint256"
        }
      ],
      "name": "setVehiclePrice",
      "outputs": [],
      "stateMutability": "nonpayable",
      "type": "function"
    },
    {
      "inputs": [],
      "name": "totalVehicles",
      "outputs": [
        {
          "internalType": "uint256",
          "name": "",
          "type": "uint256"
        }
      ],
      "stateMutability": "view",
      "type": "function"
    },
    {
      "inputs": [
        {
          "internalType": "string",
          "name": "_numberPlate",
          "type": "string"
        },
        {
          "internalType": "address",
          "name": "_newOwner",
          "type": "address"
        }
      ],
      "name": "transferVehicle",
      "outputs": [],
      "stateMutability": "nonpayable",
      "type": "function"
    },
    {
      "inputs": [
        {
          "internalType": "address",
          "name": "",
          "type": "address"
        }
      ],
      "name": "userdetails",
      "outputs": [
        {
          "internalType": "string",
          "name": "name",
          "type": "string"
        },
        {
          "internalType": "uint256",
          "name": "age",
          "type": "uint256"
        },
        {
          "internalType": "string",
          "name": "email",
          "type": "string"
        },
        {
          "internalType": "bool",
          "name": "exists",
          "type": "bool"
        }
      ],
      "stateMutability": "view",
      "type": "function"
    },
    {
      "inputs": [
        {
          "internalType": "address",
          "name": "",
          "type": "address"
        }
      ],
      "name": "users",
      "outputs": [
        {
          "internalType": "address",
          "name": "userAdd",
          "type": "address"
        },
        {
          "internalType": "uint256",
          "name": "currentVehicles",
          "type": "uint256"
        }
      ],
      "stateMutability": "view",
      "type": "function"
    },
    {
      "inputs": [
        {
          "internalType": "address",
          "name": "",
          "type": "address"
        },
        {
          "internalType": "uint256",
          "name": "",
          "type": "uint256"
        }
      ],
      "name": "vehicleOwned",
      "outputs": [
        {
          "internalType": "uint256",
          "name": "",
          "type": "uint256"
        }
      ],
      "stateMutability": "view",
      "type": "function"
    },
    {
      "inputs": [
        {
          "internalType": "uint256",
          "name": "",
          "type": "uint256"
        }
      ],
      "name": "vehicles",
      "outputs": [
        {
          "internalType": "uint256",
          "name": "id",
          "type": "uint256"
        },
        {
          "internalType": "string",
          "name": "numberPlate",
          "type": "string"
        },
        {
          "internalType": "string",
          "name": "carName",
          "type": "string"
        },
        {
          "internalType": "uint256",
          "name": "year",
          "type": "uint256"
        },
        {
          "internalType": "address",
          "name": "owner",
          "type": "address"
        },
        {
          "internalType": "uint256",
          "name": "ownerHistoryCount",
          "type": "uint256"
        },
        {
          "internalType": "uint256",
          "name": "price",
          "type": "uint256"
        },
        {
          "internalType": "bool",
          "name": "priceSet",
          "type": "bool"
        }
      ],
      "stateMutability": "view",
      "type": "function"
    },
    {
      "stateMutability": "payable",
      "type": "receive"
    }
  ],
  "bytecode": "0x608060405260008060006101000a81548160ff0219169083151502179055503480156200002b57600080fd5b50620000c06040518060400160405280600a81526020017f4d483034414130303031000000000000000000000000000000000000000000008152506040518060400160405280601681526020017f4d617275746920537769667420447a69726520564449000000000000000000008152506107de7370997970c51812dc3a010c7d01b50e0d17dc79c86200028260201b60201c565b620001546040518060400160405280600a81526020017f4d483134414230303031000000000000000000000000000000000000000000008152506040518060400160405280601c81526020017f536b6f646120526170696420312e352054444920416d626974696f6e000000008152506107de7370997970c51812dc3a010c7d01b50e0d17dc79c86200028260201b60201c565b620001e86040518060400160405280600a81526020017f4d483331414330303032000000000000000000000000000000000000000000008152506040518060400160405280601881526020017f486f6e6461204369747920323031372d323032302045586900000000000000008152506107d67370997970c51812dc3a010c7d01b50e0d17dc79c86200028260201b60201c565b6200027c6040518060400160405280600a81526020017f544e3034414430303033000000000000000000000000000000000000000000008152506040518060400160405280601981526020017f4879756e646169206932302053706f72747a2044696573656c000000000000008152506107da7370997970c51812dc3a010c7d01b50e0d17dc79c86200028260201b60201c565b62000853565b6000600260008373ffffffffffffffffffffffffffffffffffffffff1673ffffffffffffffffffffffffffffffffffffffff168152602001908152602001600020905060006001600060055481526020019081526020016000209050600554816000018190555085816001019081620002fc9190620006f0565b5084816002019081620003109190620006f0565b50838160030181905550828160040160006101000a81548173ffffffffffffffffffffffffffffffffffffffff021916908373ffffffffffffffffffffffffffffffffffffffff16021790555060018160060181905550828160050160008081526020019081526020016000206000600554815260200190815260200160002060006101000a81548173ffffffffffffffffffffffffffffffffffffffff021916908373ffffffffffffffffffffffffffffffffffffffff16021790555060056000815480929190620003e39062000806565b9190505550816001016000815480929190620003ff9062000806565b9190505550600460008473ffffffffffffffffffffffffffffffffffffffff1673ffffffffffffffffffffffffffffffffffffffff16815260200190815260200160002081600001549080600181540180825580915050600190039060005260206000200160009091909190915055505050505050565b600081519050919050565b7f4e487b7100000000000000000000000000000000000000000000000000000000600052604160045260246000fd5b7f4e487b7100000000000000000000000000000000000000000000000000000000600052602260045260246000fd5b60006002820490506001821680620004f857607f821691505b6020821081036200050e576200050d620004b0565b5b50919050565b60008190508160005260206000209050919050565b60006020601f8301049050919050565b600082821b905092915050565b600060088302620005787fffffffffffffffffffffffffffffffffffffffffffffffffffffffffffffffff8262000539565b62000584868362000539565b95508019841693508086168417925050509392505050565b6000819050919050565b6000819050919050565b6000620005d1620005cb620005c5846200059c565b620005a6565b6200059c565b9050919050565b6000819050919050565b620005ed83620005b0565b62000605620005fc82620005d8565b84845462000546565b825550505050565b600090565b6200061c6200060d565b62000629818484620005e2565b505050565b5b8181101562000651576200064560008262000612565b6001810190506200062f565b5050565b601f821115620006a0576200066a8162000514565b620006758462000529565b8101602085101562000685578190505b6200069d620006948562000529565b8301826200062e565b50505b505050565b600082821c905092915050565b6000620006c560001984600802620006a5565b1980831691505092915050565b6000620006e08383620006b2565b9150826002028217905092915050565b620006fb8262000476565b67ffffffffffffffff81111562000717576200071662000481565b5b620007238254620004df565b6200073082828562000655565b600060209050601f83116001811462000768576000841562000753578287015190505b6200075f8582620006d2565b865550620007cf565b601f198416620007788662000514565b60005b82811015620007a2578489015182556001820191506020850194506020810190506200077b565b86831015620007c25784890151620007be601f891682620006b2565b8355505b6001600288020188555050505b505050505050565b7f4e487b7100000000000000000000000000000000000000000000000000000000600052601160045260246000fd5b600062000813826200059c565b91507fffffffffffffffffffffffffffffffffffffffffffffffffffffffffffffffff8203620008485762000847620007d7565b5b600182019050919050565b61285980620008636000396000f3fe6080604052600436106100c65760003560e01c80637865375c1161007f578063a87430ba11610059578063a87430ba14610265578063b8ba95fa146102a3578063cc3d967b146102e7578063ea9d990114610326576100cd565b80637865375c146101d35780637d02edad146101fc57806391ea5dd21461023c576100cd565b806302152d02146100d257806312065fe0146100fd57806322b35cc81461012857806336670cba14610151578063637a08321461016d57806376c12c5114610196576100cd565b366100cd57005b600080fd5b3480156100de57600080fd5b506100e7610363565b6040516100f4919061178d565b60405180910390f35b34801561010957600080fd5b50610112610369565b60405161011f919061178d565b60405180910390f35b34801561013457600080fd5b5061014f600480360381019061014a9190611960565b610371565b005b61016b600480360381019061016691906119bc565b610778565b005b34801561017957600080fd5b50610194600480360381019061018f9190611a31565b610ad2565b005b3480156101a257600080fd5b506101bd60048036038101906101b891906119bc565b610c23565b6040516101ca9190611b7a565b60405180910390f35b3480156101df57600080fd5b506101fa60048036038101906101f59190611b9c565b610dfb565b005b34801561020857600080fd5b50610223600480360381019061021e9190611c3b565b610fe7565b6040516102339493929190611d02565b60405180910390f35b34801561024857600080fd5b50610263600480360381019061025e9190611d55565b611134565b005b34801561027157600080fd5b5061028c60048036038101906102879190611c3b565b6112f9565b60405161029a929190611dc0565b60405180910390f35b3480156102af57600080fd5b506102ca60048036038101906102c59190611de9565b61133d565b6040516102de989796959493929190611e16565b60405180910390f35b3480156102f357600080fd5b5061030e60048036038101906103099190611c3b565b6114c2565b60405161031d93929190611ea2565b60405180910390f35b34801561033257600080fd5b5061034d60048036038101906103489190611ee7565b611743565b60405161035a919061178d565b60405180910390f35b60055481565b600047905090565b6000600554905060005b6005548110156103d8578380519060200120600160008381526020019081526020016000206001016040516103b0919061202a565b6040518091039020036103c5578091506103d8565b80806103d090612070565b91505061037b565b50600554811061041d576040517f08c379a000000000000000000000000000000000000000000000000000000000815260040161041490612104565b60405180910390fd5b6000600260003373ffffffffffffffffffffffffffffffffffffffff1673ffffffffffffffffffffffffffffffffffffffff168152602001908152602001600020905060006001600084815260200190815260200160002090503373ffffffffffffffffffffffffffffffffffffffff168160040160009054906101000a900473ffffffffffffffffffffffffffffffffffffffff1673ffffffffffffffffffffffffffffffffffffffff1614806104e657506001151560008054906101000a900460ff161515145b610525576040517f08c379a000000000000000000000000000000000000000000000000000000000815260040161051c90612196565b60405180910390fd5b8381600501600083600601548152602001908152602001600020600085815260200190815260200160002060006101000a81548173ffffffffffffffffffffffffffffffffffffffff021916908373ffffffffffffffffffffffffffffffffffffffff1602179055508060060160008154809291906105a390612070565b91905055508160010160008154809291906105bd90612070565b91905055506000600460003373ffffffffffffffffffffffffffffffffffffffff1673ffffffffffffffffffffffffffffffffffffffff168152602001908152602001600020905060005b81805490508110156106c65784828281548110610628576106276121b6565b5b9060005260206000200154036106b357816001838054905061064a91906121e5565b8154811061065b5761065a6121b6565b5b9060005260206000200154828281548110610679576106786121b6565b5b90600052602060002001819055508180548061069857610697612219565b5b600190038181906000526020600020016000905590556106c6565b80806106be90612070565b915050610608565b50600460008673ffffffffffffffffffffffffffffffffffffffff1673ffffffffffffffffffffffffffffffffffffffff168152602001908152602001600020849080600181540180825580915050600190039060005260206000200160009091909190915055848260040160006101000a81548173ffffffffffffffffffffffffffffffffffffffff021916908373ffffffffffffffffffffffffffffffffffffffff160217905550505050505050565b6000600554905060005b6005548110156107df578280519060200120600160008381526020019081526020016000206001016040516107b7919061202a565b6040518091039020036107cc578091506107df565b80806107d790612070565b915050610782565b506005548110610824576040517f08c379a000000000000000000000000000000000000000000000000000000000815260040161081b90612104565b60405180910390fd5b6000600160008381526020019081526020016000209050600115158160080160009054906101000a900460ff16151514610893576040517f08c379a000000000000000000000000000000000000000000000000000000000815260040161088a90612294565b60405180910390fd5b600073ffffffffffffffffffffffffffffffffffffffff168160040160009054906101000a900473ffffffffffffffffffffffffffffffffffffffff1673ffffffffffffffffffffffffffffffffffffffff1603610926576040517f08c379a000000000000000000000000000000000000000000000000000000000815260040161091d90612300565b60405180910390fd5b8060070154670de0b6b3a76400003461093f919061234f565b1461097f576040517f08c379a0000000000000000000000000000000000000000000000000000000008152600401610976906123f2565b60405180910390fd5b60008160040160009054906101000a900473ffffffffffffffffffffffffffffffffffffffff1690508073ffffffffffffffffffffffffffffffffffffffff166108fc349081150290604051600060405180830381858888f193505050501580156109ee573d6000803e3d6000fd5b5060016000806101000a81548160ff0219169083151502179055506000600260008460040160009054906101000a900473ffffffffffffffffffffffffffffffffffffffff1673ffffffffffffffffffffffffffffffffffffffff1673ffffffffffffffffffffffffffffffffffffffff1681526020019081526020016000209050806001016000815480929190610a8590612412565b9190505550610a948533610371565b60008060006101000a81548160ff02191690831515021790555060008360080160006101000a81548160ff0219169083151502179055505050505050565b600360003373ffffffffffffffffffffffffffffffffffffffff1673ffffffffffffffffffffffffffffffffffffffff16815260200190815260200160002060030160009054906101000a900460ff1615610b62576040517f08c379a0000000000000000000000000000000000000000000000000000000008152600401610b5990612487565b60405180910390fd5b604051806080016040528084815260200183815260200182815260200160011515815250600360003373ffffffffffffffffffffffffffffffffffffffff1673ffffffffffffffffffffffffffffffffffffffff1681526020019081526020016000206000820151816000019081610bda9190612653565b50602082015181600101556040820151816002019081610bfa9190612653565b5060608201518160030160006101000a81548160ff021916908315150217905550905050505050565b60606000600554905060005b600554811015610c8c57838051906020012060016000838152602001908152602001600020600101604051610c64919061202a565b604051809103902003610c7957809150610c8c565b8080610c8490612070565b915050610c2f565b506005548110610cd1576040517f08c379a0000000000000000000000000000000000000000000000000000000008152600401610cc890612104565b60405180910390fd5b60006001600083815260200190815260200160002090506000816006015467ffffffffffffffff811115610d0857610d076117d7565b5b604051908082528060200260200182016040528015610d365781602001602082028036833780820191505090505b50905060005b8260060154811015610def57826005016000828152602001908152602001600020600085815260200190815260200160002060009054906101000a900473ffffffffffffffffffffffffffffffffffffffff16828281518110610da257610da16121b6565b5b602002602001019073ffffffffffffffffffffffffffffffffffffffff16908173ffffffffffffffffffffffffffffffffffffffff16815250508080610de790612070565b915050610d3c565b50809350505050919050565b6000600260008373ffffffffffffffffffffffffffffffffffffffff1673ffffffffffffffffffffffffffffffffffffffff168152602001908152602001600020905060006001600060055481526020019081526020016000209050600554816000018190555085816001019081610e739190612653565b5084816002019081610e859190612653565b50838160030181905550828160040160006101000a81548173ffffffffffffffffffffffffffffffffffffffff021916908373ffffffffffffffffffffffffffffffffffffffff16021790555060018160060181905550828160050160008081526020019081526020016000206000600554815260200190815260200160002060006101000a81548173ffffffffffffffffffffffffffffffffffffffff021916908373ffffffffffffffffffffffffffffffffffffffff16021790555060056000815480929190610f5690612070565b9190505550816001016000815480929190610f7090612070565b9190505550600460008473ffffffffffffffffffffffffffffffffffffffff1673ffffffffffffffffffffffffffffffffffffffff16815260200190815260200160002081600001549080600181540180825580915050600190039060005260206000200160009091909190915055505050505050565b600360205280600052604060002060009150905080600001805461100a90611f56565b80601f016020809104026020016040519081016040528092919081815260200182805461103690611f56565b80156110835780601f1061105857610100808354040283529160200191611083565b820191906000526020600020905b81548152906001019060200180831161106657829003601f168201915b50505050509080600101549080600201805461109e90611f56565b80601f01602080910402602001604051908101604052809291908181526020018280546110ca90611f56565b80156111175780601f106110ec57610100808354040283529160200191611117565b820191906000526020600020905b8154815290600101906020018083116110fa57829003601f168201915b5050505050908060030160009054906101000a900460ff16905084565b6000600260003373ffffffffffffffffffffffffffffffffffffffff1673ffffffffffffffffffffffffffffffffffffffff16815260200190815260200160002090506000600554905060005b6005548110156111de578480519060200120600160008381526020019081526020016000206001016040516111b6919061202a565b6040518091039020036111cb578091506111de565b80806111d690612070565b915050611181565b506005548110611223576040517f08c379a000000000000000000000000000000000000000000000000000000000815260040161121a90612104565b60405180910390fd5b60006001600083815260200190815260200160002090503373ffffffffffffffffffffffffffffffffffffffff168160040160009054906101000a900473ffffffffffffffffffffffffffffffffffffffff1673ffffffffffffffffffffffffffffffffffffffff16146112cc576040517f08c379a00000000000000000000000000000000000000000000000000000000081526004016112c390612797565b60405180910390fd5b83816007018190555060018160080160006101000a81548160ff0219169083151502179055505050505050565b60026020528060005260406000206000915090508060000160009054906101000a900473ffffffffffffffffffffffffffffffffffffffff16908060010154905082565b600160205280600052604060002060009150905080600001549080600101805461136690611f56565b80601f016020809104026020016040519081016040528092919081815260200182805461139290611f56565b80156113df5780601f106113b4576101008083540402835291602001916113df565b820191906000526020600020905b8154815290600101906020018083116113c257829003601f168201915b5050505050908060020180546113f490611f56565b80601f016020809104026020016040519081016040528092919081815260200182805461142090611f56565b801561146d5780601f106114425761010080835404028352916020019161146d565b820191906000526020600020905b81548152906001019060200180831161145057829003601f168201915b5050505050908060030154908060040160009054906101000a900473ffffffffffffffffffffffffffffffffffffffff16908060060154908060070154908060080160009054906101000a900460ff16905088565b606060006060600360008573ffffffffffffffffffffffffffffffffffffffff1673ffffffffffffffffffffffffffffffffffffffff16815260200190815260200160002060030160009054906101000a900460ff16611557576040517f08c379a000000000000000000000000000000000000000000000000000000000815260040161154e90612803565b60405180910390fd5b600360008573ffffffffffffffffffffffffffffffffffffffff1673ffffffffffffffffffffffffffffffffffffffff168152602001908152602001600020600001600360008673ffffffffffffffffffffffffffffffffffffffff1673ffffffffffffffffffffffffffffffffffffffff16815260200190815260200160002060010154600360008773ffffffffffffffffffffffffffffffffffffffff1673ffffffffffffffffffffffffffffffffffffffff16815260200190815260200160002060020182805461162a90611f56565b80601f016020809104026020016040519081016040528092919081815260200182805461165690611f56565b80156116a35780601f10611678576101008083540402835291602001916116a3565b820191906000526020600020905b81548152906001019060200180831161168657829003601f168201915b505050505092508080546116b690611f56565b80601f01602080910402602001604051908101604052809291908181526020018280546116e290611f56565b801561172f5780601f106117045761010080835404028352916020019161172f565b820191906000526020600020905b81548152906001019060200180831161171257829003601f168201915b505050505090509250925092509193909250565b6004602052816000526040600020818154811061175f57600080fd5b90600052602060002001600091509150505481565b6000819050919050565b61178781611774565b82525050565b60006020820190506117a2600083018461177e565b92915050565b6000604051905090565b600080fd5b600080fd5b600080fd5b600080fd5b6000601f19601f8301169050919050565b7f4e487b7100000000000000000000000000000000000000000000000000000000600052604160045260246000fd5b61180f826117c6565b810181811067ffffffffffffffff8211171561182e5761182d6117d7565b5b80604052505050565b60006118416117a8565b905061184d8282611806565b919050565b600067ffffffffffffffff82111561186d5761186c6117d7565b5b611876826117c6565b9050602081019050919050565b82818337600083830152505050565b60006118a56118a084611852565b611837565b9050828152602081018484840111156118c1576118c06117c1565b5b6118cc848285611883565b509392505050565b600082601f8301126118e9576118e86117bc565b5b81356118f9848260208601611892565b91505092915050565b600073ffffffffffffffffffffffffffffffffffffffff82169050919050565b600061192d82611902565b9050919050565b61193d81611922565b811461194857600080fd5b50565b60008135905061195a81611934565b92915050565b60008060408385031215611977576119766117b2565b5b600083013567ffffffffffffffff811115611995576119946117b7565b5b6119a1858286016118d4565b92505060206119b28582860161194b565b9150509250929050565b6000602082840312156119d2576119d16117b2565b5b600082013567ffffffffffffffff8111156119f0576119ef6117b7565b5b6119fc848285016118d4565b91505092915050565b611a0e81611774565b8114611a1957600080fd5b50565b600081359050611a2b81611a05565b92915050565b600080600060608486031215611a4a57611a496117b2565b5b600084013567ffffffffffffffff811115611a6857611a676117b7565b5b611a74868287016118d4565b9350506020611a8586828701611a1c565b925050604084013567ffffffffffffffff811115611aa657611aa56117b7565b5b611ab2868287016118d4565b9150509250925092565b600081519050919050565b600082825260208201905092915050565b6000819050602082019050919050565b611af181611922565b82525050565b6000611b038383611ae8565b60208301905092915050565b6000602082019050919050565b6000611b2782611abc565b611b318185611ac7565b9350611b3c83611ad8565b8060005b83811015611b6d578151611b548882611af7565b9750611b5f83611b0f565b925050600181019050611b40565b5085935050505092915050565b60006020820190508181036000830152611b948184611b1c565b905092915050565b60008060008060808587031215611bb657611bb56117b2565b5b600085013567ffffffffffffffff811115611bd457611bd36117b7565b5b611be0878288016118d4565b945050602085013567ffffffffffffffff811115611c0157611c006117b7565b5b611c0d878288016118d4565b9350506040611c1e87828801611a1c565b9250506060611c2f8782880161194b565b91505092959194509250565b600060208284031215611c5157611c506117b2565b5b6000611c5f8482850161194b565b91505092915050565b600081519050919050565b600082825260208201905092915050565b60005b83811015611ca2578082015181840152602081019050611c87565b60008484015250505050565b6000611cb982611c68565b611cc38185611c73565b9350611cd3818560208601611c84565b611cdc816117c6565b840191505092915050565b60008115159050919050565b611cfc81611ce7565b82525050565b60006080820190508181036000830152611d1c8187611cae565b9050611d2b602083018661177e565b8181036040830152611d3d8185611cae565b9050611d4c6060830184611cf3565b95945050505050565b60008060408385031215611d6c57611d6b6117b2565b5b600083013567ffffffffffffffff811115611d8a57611d896117b7565b5b611d96858286016118d4565b9250506020611da785828601611a1c565b9150509250929050565b611dba81611922565b82525050565b6000604082019050611dd56000830185611db1565b611de2602083018461177e565b9392505050565b600060208284031215611dff57611dfe6117b2565b5b6000611e0d84828501611a1c565b91505092915050565b600061010082019050611e2c600083018b61177e565b8181036020830152611e3e818a611cae565b90508181036040830152611e528189611cae565b9050611e61606083018861177e565b611e6e6080830187611db1565b611e7b60a083018661177e565b611e8860c083018561177e565b611e9560e0830184611cf3565b9998505050505050505050565b60006060820190508181036000830152611ebc8186611cae565b9050611ecb602083018561177e565b8181036040830152611edd8184611cae565b9050949350505050565b60008060408385031215611efe57611efd6117b2565b5b6000611f0c8582860161194b565b9250506020611f1d85828601611a1c565b9150509250929050565b7f4e487b7100000000000000000000000000000000000000000000000000000000600052602260045260246000fd5b60006002820490506001821680611f6e57607f821691505b602082108103611f8157611f80611f27565b5b50919050565b600081905092915050565b60008190508160005260206000209050919050565b60008154611fb481611f56565b611fbe8186611f87565b94506001821660008114611fd95760018114611fee57612021565b60ff1983168652811515820286019350612021565b611ff785611f92565b60005b8381101561201957815481890152600182019150602081019050611ffa565b838801955050505b50505092915050565b60006120368284611fa7565b915081905092915050565b7f4e487b7100000000000000000000000000000000000000000000000000000000600052601160045260246000fd5b600061207b82611774565b91507fffffffffffffffffffffffffffffffffffffffffffffffffffffffffffffffff82036120ad576120ac612041565b5b600182019050919050565b7f496e76616c6964204e756d62657220706c617465000000000000000000000000600082015250565b60006120ee601483611c73565b91506120f9826120b8565b602082019050919050565b6000602082019050818103600083015261211d816120e1565b9050919050565b7f4f6e6c79207468652063757272656e74206f776e65722063616e207472616e7360008201527f666572207468652076656869636c650000000000000000000000000000000000602082015250565b6000612180602f83611c73565b915061218b82612124565b604082019050919050565b600060208201905081810360008301526121af81612173565b9050919050565b7f4e487b7100000000000000000000000000000000000000000000000000000000600052603260045260246000fd5b60006121f082611774565b91506121fb83611774565b925082820390508181111561221357612212612041565b5b92915050565b7f4e487b7100000000000000000000000000000000000000000000000000000000600052603160045260246000fd5b7f56656869636c65206e6f7420666f722073616c65000000000000000000000000600082015250565b600061227e601483611c73565b915061228982612248565b602082019050919050565b600060208201905081810360008301526122ad81612271565b9050919050565b7f56656869636c6520646f6573206e6f7420657869737400000000000000000000600082015250565b60006122ea601683611c73565b91506122f5826122b4565b602082019050919050565b60006020820190508181036000830152612319816122dd565b9050919050565b7f4e487b7100000000000000000000000000000000000000000000000000000000600052601260045260246000fd5b600061235a82611774565b915061236583611774565b92508261237557612374612320565b5b828204905092915050565b7f496e73756666696369656e742066756e647320746f206275792074686520766560008201527f6869636c65000000000000000000000000000000000000000000000000000000602082015250565b60006123dc602583611c73565b91506123e782612380565b604082019050919050565b6000602082019050818103600083015261240b816123cf565b9050919050565b600061241d82611774565b9150600082036124305761242f612041565b5b600182039050919050565b7f5573657220616c72656164792065786973747300000000000000000000000000600082015250565b6000612471601383611c73565b915061247c8261243b565b602082019050919050565b600060208201905081810360008301526124a081612464565b9050919050565b60008190508160005260206000209050919050565b60006020601f8301049050919050565b600082821b905092915050565b6000600883026125097fffffffffffffffffffffffffffffffffffffffffffffffffffffffffffffffff826124cc565b61251386836124cc565b95508019841693508086168417925050509392505050565b6000819050919050565b600061255061254b61254684611774565b61252b565b611774565b9050919050565b6000819050919050565b61256a83612535565b61257e61257682612557565b8484546124d9565b825550505050565b600090565b612593612586565b61259e818484612561565b505050565b5b818110156125c2576125b760008261258b565b6001810190506125a4565b5050565b601f821115612607576125d8816124a7565b6125e1846124bc565b810160208510156125f0578190505b6126046125fc856124bc565b8301826125a3565b50505b505050565b600082821c905092915050565b600061262a6000198460080261260c565b1980831691505092915050565b60006126438383612619565b9150826002028217905092915050565b61265c82611c68565b67ffffffffffffffff811115612675576126746117d7565b5b61267f8254611f56565b61268a8282856125c6565b600060209050601f8311600181146126bd57600084156126ab578287015190505b6126b58582612637565b86555061271d565b601f1984166126cb866124a7565b60005b828110156126f3578489015182556001820191506020850194506020810190506126ce565b86831015612710578489015161270c601f891682612619565b8355505b6001600288020188555050505b505050505050565b7f4f6e6c79207468652063757272656e74206f776e65722063616e20736574207460008201527f6865207072696365206f66207468652076656869636c65000000000000000000602082015250565b6000612781603783611c73565b915061278c82612725565b604082019050919050565b600060208201905081810360008301526127b081612774565b9050919050565b7f5573657220646f6573206e6f7420657869737400000000000000000000000000600082015250565b60006127ed601383611c73565b91506127f8826127b7565b602082019050919050565b6000602082019050818103600083015261281c816127e0565b905091905056fea2646970667358221220902b3333eeaf5adea64966475ac2113faa9ff9bb04174081b2fde210892ae04764736f6c63430008130033",
  "linkReferences": {},
  "deployedLinkReferences": {}
}