{
  "_format": "hh-sol-artifact-1",
  "contractName": "VehicleManagement",
  "sourceName": "contracts/VehicleManagement.sol",
  "abi": [
    {
      "inputs": [],
      "stateMutability": "nonpayable",
      "type": "constructor"
    },
    {
      "inputs": [
        {
          "internalType": "address",
          "name": "user",
          "type": "address"
        },
        {
          "internalType": "uint256",
          "name": "docId",
          "type": "uint256"
        },
        {
          "internalType": "string",
          "name": "docHash",
          "type": "string"
        }
      ],
      "name": "addDocument",
      "outputs": [],
      "stateMutability": "nonpayable",
      "type": "function"
    },
    {
      "inputs": [
        {
          "internalType": "string",
          "name": "_numberPlate",
          "type": "string"
        },
        {
          "internalType": "string",
          "name": "_carName",
          "type": "string"
        },
        {
          "internalType": "uint256",
          "name": "_year",
          "type": "uint256"
        },
        {
          "internalType": "address",
          "name": "_address",
          "type": "address"
        }
      ],
      "name": "addVehicle",
      "outputs": [],
      "stateMutability": "nonpayable",
      "type": "function"
    },
    {
      "inputs": [
        {
          "internalType": "address",
          "name": "user",
          "type": "address"
        },
        {
          "internalType": "uint256",
          "name": "docId",
          "type": "uint256"
        }
      ],
      "name": "approveDocument",
      "outputs": [],
      "stateMutability": "nonpayable",
      "type": "function"
    },
    {
      "inputs": [
        {
          "internalType": "string",
          "name": "_numberPlate",
          "type": "string"
        }
      ],
      "name": "buyVehicle",
      "outputs": [],
      "stateMutability": "payable",
      "type": "function"
    },
    {
      "inputs": [],
      "name": "counter",
      "outputs": [
        {
          "internalType": "uint256",
          "name": "",
          "type": "uint256"
        }
      ],
      "stateMutability": "view",
      "type": "function"
    },
    {
      "inputs": [
        {
          "internalType": "address",
          "name": "user",
          "type": "address"
        },
        {
          "internalType": "uint256",
          "name": "docId",
          "type": "uint256"
        }
      ],
      "name": "denyDocument",
      "outputs": [],
      "stateMutability": "nonpayable",
      "type": "function"
    },
    {
      "inputs": [
        {
          "internalType": "address",
          "name": "userAddress",
          "type": "address"
        }
      ],
      "name": "displayVehiclesOwned",
      "outputs": [
        {
          "components": [
            {
              "internalType": "uint256",
              "name": "id",
              "type": "uint256"
            },
            {
              "internalType": "string",
              "name": "numberPlate",
              "type": "string"
            },
            {
              "internalType": "address",
              "name": "userAddress",
              "type": "address"
            },
            {
              "internalType": "string",
              "name": "carName",
              "type": "string"
            },
            {
              "internalType": "uint256",
              "name": "year",
              "type": "uint256"
            },
            {
              "internalType": "uint256",
              "name": "ownerHistoryCount",
              "type": "uint256"
            }
          ],
          "internalType": "struct VehicleManagement.VehiclesOwned[]",
          "name": "",
          "type": "tuple[]"
        }
      ],
      "stateMutability": "view",
      "type": "function"
    },
    {
      "inputs": [],
      "name": "displayVehiclesforSale",
      "outputs": [
        {
          "internalType": "uint256[]",
          "name": "",
          "type": "uint256[]"
        }
      ],
      "stateMutability": "view",
      "type": "function"
    },
    {
      "inputs": [
        {
          "internalType": "address",
          "name": "user",
          "type": "address"
        },
        {
          "internalType": "uint256",
          "name": "docId",
          "type": "uint256"
        }
      ],
      "name": "getApprovalStatus",
      "outputs": [
        {
          "internalType": "bool",
          "name": "",
          "type": "bool"
        }
      ],
      "stateMutability": "view",
      "type": "function"
    },
    {
      "inputs": [],
      "name": "getBalance",
      "outputs": [
        {
          "internalType": "uint256",
          "name": "",
          "type": "uint256"
        }
      ],
      "stateMutability": "view",
      "type": "function"
    },
    {
      "inputs": [
        {
          "internalType": "address",
          "name": "user",
          "type": "address"
        },
        {
          "internalType": "uint256",
          "name": "docId",
          "type": "uint256"
        }
      ],
      "name": "getDocumentHash",
      "outputs": [
        {
          "internalType": "string",
          "name": "",
          "type": "string"
        }
      ],
      "stateMutability": "view",
      "type": "function"
    },
    {
      "inputs": [
        {
          "internalType": "address",
          "name": "_user",
          "type": "address"
        }
      ],
      "name": "getUserDetails",
      "outputs": [
        {
          "internalType": "string",
          "name": "",
          "type": "string"
        },
        {
          "internalType": "uint256",
          "name": "",
          "type": "uint256"
        },
        {
          "internalType": "string",
          "name": "",
          "type": "string"
        }
      ],
      "stateMutability": "view",
      "type": "function"
    },
    {
      "inputs": [
        {
          "internalType": "string",
          "name": "_numberPlate",
          "type": "string"
        }
      ],
      "name": "getVehicleOwnerHistory",
      "outputs": [
        {
          "internalType": "address[]",
          "name": "",
          "type": "address[]"
        }
      ],
      "stateMutability": "view",
      "type": "function"
    },
    {
      "inputs": [],
      "name": "getVehiclesWithPriceSet",
      "outputs": [
        {
          "components": [
            {
              "internalType": "string",
              "name": "carName",
              "type": "string"
            },
            {
              "internalType": "uint256",
              "name": "year",
              "type": "uint256"
            },
            {
              "internalType": "string",
              "name": "numberPlate",
              "type": "string"
            },
            {
              "internalType": "string",
              "name": "ownerName",
              "type": "string"
            },
            {
              "internalType": "uint256",
              "name": "price",
              "type": "uint256"
            }
          ],
          "internalType": "struct VehicleManagement.VehicleDetails[]",
          "name": "",
          "type": "tuple[]"
        }
      ],
      "stateMutability": "view",
      "type": "function"
    },
    {
      "inputs": [
        {
          "internalType": "string",
          "name": "name",
          "type": "string"
        },
        {
          "internalType": "uint256",
          "name": "age",
          "type": "uint256"
        },
        {
          "internalType": "string",
          "name": "email",
          "type": "string"
        }
      ],
      "name": "register",
      "outputs": [],
      "stateMutability": "nonpayable",
      "type": "function"
    },
    {
      "inputs": [
        {
          "internalType": "string",
          "name": "_numberPlate",
          "type": "string"
        },
        {
          "internalType": "uint256",
          "name": "_price",
          "type": "uint256"
        }
      ],
      "name": "setVehiclePrice",
      "outputs": [],
      "stateMutability": "nonpayable",
      "type": "function"
    },
    {
      "inputs": [],
      "name": "totalVehicles",
      "outputs": [
        {
          "internalType": "uint256",
          "name": "",
          "type": "uint256"
        }
      ],
      "stateMutability": "view",
      "type": "function"
    },
    {
      "inputs": [
        {
          "internalType": "string",
          "name": "_numberPlate",
          "type": "string"
        },
        {
          "internalType": "address",
          "name": "_newOwner",
          "type": "address"
        }
      ],
      "name": "transferVehicle",
      "outputs": [],
      "stateMutability": "nonpayable",
      "type": "function"
    },
    {
      "inputs": [
        {
          "internalType": "address",
          "name": "",
          "type": "address"
        }
      ],
      "name": "userdetails",
      "outputs": [
        {
          "internalType": "string",
          "name": "name",
          "type": "string"
        },
        {
          "internalType": "uint256",
          "name": "age",
          "type": "uint256"
        },
        {
          "internalType": "string",
          "name": "email",
          "type": "string"
        },
        {
          "internalType": "bool",
          "name": "exists",
          "type": "bool"
        }
      ],
      "stateMutability": "view",
      "type": "function"
    },
    {
      "inputs": [
        {
          "internalType": "address",
          "name": "",
          "type": "address"
        }
      ],
      "name": "users",
      "outputs": [
        {
          "internalType": "address",
          "name": "userAdd",
          "type": "address"
        },
        {
          "internalType": "uint256",
          "name": "currentVehicles",
          "type": "uint256"
        },
        {
          "internalType": "uint256",
          "name": "counterTotalVehiclesOwned",
          "type": "uint256"
        }
      ],
      "stateMutability": "view",
      "type": "function"
    },
    {
      "inputs": [
        {
          "internalType": "address",
          "name": "",
          "type": "address"
        },
        {
          "internalType": "uint256",
          "name": "",
          "type": "uint256"
        }
      ],
      "name": "vehicleOwned",
      "outputs": [
        {
          "internalType": "uint256",
          "name": "",
          "type": "uint256"
        }
      ],
      "stateMutability": "view",
      "type": "function"
    },
    {
      "inputs": [
        {
          "internalType": "uint256",
          "name": "",
          "type": "uint256"
        }
      ],
      "name": "vehicles",
      "outputs": [
        {
          "internalType": "uint256",
          "name": "id",
          "type": "uint256"
        },
        {
          "internalType": "string",
          "name": "numberPlate",
          "type": "string"
        },
        {
          "internalType": "string",
          "name": "carName",
          "type": "string"
        },
        {
          "internalType": "uint256",
          "name": "year",
          "type": "uint256"
        },
        {
          "internalType": "address",
          "name": "owner",
          "type": "address"
        },
        {
          "internalType": "uint256",
          "name": "ownerHistoryCount",
          "type": "uint256"
        },
        {
          "internalType": "uint256",
          "name": "price",
          "type": "uint256"
        },
        {
          "internalType": "bool",
          "name": "priceSet",
          "type": "bool"
        }
      ],
      "stateMutability": "view",
      "type": "function"
    },
    {
      "inputs": [
        {
          "internalType": "uint256",
          "name": "",
          "type": "uint256"
        }
      ],
      "name": "vehiclesWithPriceSet",
      "outputs": [
        {
          "internalType": "uint256",
          "name": "",
          "type": "uint256"
        }
      ],
      "stateMutability": "view",
      "type": "function"
    },
    {
      "inputs": [
        {
          "internalType": "address",
          "name": "user",
          "type": "address"
        },
        {
          "internalType": "uint256",
          "name": "docId",
          "type": "uint256"
        }
      ],
      "name": "verifyDocument",
      "outputs": [
        {
          "internalType": "bool",
          "name": "",
          "type": "bool"
        }
      ],
      "stateMutability": "view",
      "type": "function"
    },
    {
      "stateMutability": "payable",
      "type": "receive"
    }
  ],
  "bytecode": "0x608060405260008060006101000a81548160ff02191690831515021790555060006009553480156200003057600080fd5b50620000c56040518060400160405280600a81526020017f4d483034414130303031000000000000000000000000000000000000000000008152506040518060400160405280601681526020017f4d617275746920537769667420447a69726520564449000000000000000000008152506107de7370997970c51812dc3a010c7d01b50e0d17dc79c86200099460201b60201c565b620001596040518060400160405280600a81526020017f4d483134414230303031000000000000000000000000000000000000000000008152506040518060400160405280601c81526020017f536b6f646120526170696420312e352054444920416d626974696f6e000000008152506107de7370997970c51812dc3a010c7d01b50e0d17dc79c86200099460201b60201c565b620001ed6040518060400160405280600a81526020017f4d483331414330303032000000000000000000000000000000000000000000008152506040518060400160405280601881526020017f486f6e6461204369747920323031372d323032302045586900000000000000008152506107d673f39fd6e51aad88f6f4ce6ab8827279cfffb922666200099460201b60201c565b620002816040518060400160405280600a81526020017f544e3034414430303033000000000000000000000000000000000000000000008152506040518060400160405280601981526020017f4879756e646169206932302053706f72747a2044696573656c000000000000008152506107da73f39fd6e51aad88f6f4ce6ab8827279cfffb922666200099460201b60201c565b620003156040518060400160405280600a81526020017f544e3034414430303033000000000000000000000000000000000000000000008152506040518060400160405280601981526020017f4879756e646169206932302053706f72747a2044696573656c000000000000008152506107da7370997970c51812dc3a010c7d01b50e0d17dc79c86200099460201b60201c565b620003a96040518060400160405280600a81526020017f4b413139414530303034000000000000000000000000000000000000000000008152506040518060400160405280601681526020017f4d617275746920537769667420565849204253494949000000000000000000008152506107d7733c44cdddb6a900fa2b585dd299e03d12fa4293bc6200099460201b60201c565b6200043d6040518060400160405280600a81526020017f444c3037414630303035000000000000000000000000000000000000000000008152506040518060400160405280601d81526020017f4879756e646169205863656e7420312e322056545654204520506c75730000008152506107e17370997970c51812dc3a010c7d01b50e0d17dc79c86200099460201b60201c565b620004d16040518060400160405280600a81526020017f54533130414730303036000000000000000000000000000000000000000000008152506040518060400160405280601281526020017f4d617275746920383030204458204253494900000000000000000000000000008152506107d1733c44cdddb6a900fa2b585dd299e03d12fa4293bc6200099460201b60201c565b620005656040518060400160405280600a81526020017f4d483034414830303037000000000000000000000000000000000000000000008152506040518060400160405280601081526020017f546f796f7461204574696f7320565844000000000000000000000000000000008152506107db7370997970c51812dc3a010c7d01b50e0d17dc79c86200099460201b60201c565b620005dd6040518060400160405280600a81526020017f4d483134414930303038000000000000000000000000000000000000000000008152506040518060600160405280602481526020016200503f602491396107dd733c44cdddb6a900fa2b585dd299e03d12fa4293bc6200099460201b60201c565b620006716040518060400160405280600a81526020017f4d483331414a30303039000000000000000000000000000000000000000000008152506040518060400160405280601f81526020017f52656e61756c74204475737465722031313050532044696573656c2052784c008152506107de7369f22131f86bc5bd7a57a4b701ef7148256f22566200099460201b60201c565b620007056040518060400160405280600a81526020017f544e3034414b30303130000000000000000000000000000000000000000000008152506040518060400160405280600d81526020017f4d6172757469205a656e204c58000000000000000000000000000000000000008152506107d57315d34aaf54267db7d7c367839aaf71a00a2c6a656200099460201b60201c565b620007996040518060400160405280600a81526020017f4b413139414c30303131000000000000000000000000000000000000000000008152506040518060400160405280601681526020017f4d617275746920537769667420447a69726520564469000000000000000000008152506107d97369f22131f86bc5bd7a57a4b701ef7148256f22566200099460201b60201c565b6200082d6040518060400160405280600b81526020017f20444c3037414d303031320000000000000000000000000000000000000000008152506040518060400160405280601881526020017f4d6172757469205761676f6e2052204c5849204d696e6f7200000000000000008152506107d97315d34aaf54267db7d7c367839aaf71a00a2c6a656200099460201b60201c565b620008a56040518060400160405280600a81526020017f54533130414e30303133000000000000000000000000000000000000000000008152506040518060600160405280602481526020016200501b602491396107e07369f22131f86bc5bd7a57a4b701ef7148256f22566200099460201b60201c565b620009396040518060400160405280600a81526020017f4d483034414f30303134000000000000000000000000000000000000000000008152506040518060400160405280601681526020017f4d617275746920457274696761205348565320564449000000000000000000008152506107e07315d34aaf54267db7d7c367839aaf71a00a2c6a656200099460201b60201c565b73f39fd6e51aad88f6f4ce6ab8827279cfffb92266600a60006101000a81548173ffffffffffffffffffffffffffffffffffffffff021916908373ffffffffffffffffffffffffffffffffffffffff16021790555062000fb0565b6000600260008373ffffffffffffffffffffffffffffffffffffffff1673ffffffffffffffffffffffffffffffffffffffff16815260200190815260200160002090506000600160006006548152602001908152602001600020905060065481600001819055508581600101908162000a0e919062000e4d565b508481600201908162000a22919062000e4d565b50838160030181905550828160040160006101000a81548173ffffffffffffffffffffffffffffffffffffffff021916908373ffffffffffffffffffffffffffffffffffffffff16021790555060018160060181905550828160050160008081526020019081526020016000206000600654815260200190815260200160002060006101000a81548173ffffffffffffffffffffffffffffffffffffffff021916908373ffffffffffffffffffffffffffffffffffffffff1602179055506006600081548092919062000af59062000f63565b919050555081600101600081548092919062000b119062000f63565b919050555081600301600081548092919062000b2d9062000f63565b91905055508160020181600001549080600181540180825580915050600190039060005260206000200160009091909190915055600460008473ffffffffffffffffffffffffffffffffffffffff1673ffffffffffffffffffffffffffffffffffffffff16815260200190815260200160002081600001549080600181540180825580915050600190039060005260206000200160009091909190915055505050505050565b600081519050919050565b7f4e487b7100000000000000000000000000000000000000000000000000000000600052604160045260246000fd5b7f4e487b7100000000000000000000000000000000000000000000000000000000600052602260045260246000fd5b6000600282049050600182168062000c5557607f821691505b60208210810362000c6b5762000c6a62000c0d565b5b50919050565b60008190508160005260206000209050919050565b60006020601f8301049050919050565b600082821b905092915050565b60006008830262000cd57fffffffffffffffffffffffffffffffffffffffffffffffffffffffffffffffff8262000c96565b62000ce1868362000c96565b95508019841693508086168417925050509392505050565b6000819050919050565b6000819050919050565b600062000d2e62000d2862000d228462000cf9565b62000d03565b62000cf9565b9050919050565b6000819050919050565b62000d4a8362000d0d565b62000d6262000d598262000d35565b84845462000ca3565b825550505050565b600090565b62000d7962000d6a565b62000d8681848462000d3f565b505050565b5b8181101562000dae5762000da260008262000d6f565b60018101905062000d8c565b5050565b601f82111562000dfd5762000dc78162000c71565b62000dd28462000c86565b8101602085101562000de2578190505b62000dfa62000df18562000c86565b83018262000d8b565b50505b505050565b600082821c905092915050565b600062000e226000198460080262000e02565b1980831691505092915050565b600062000e3d838362000e0f565b9150826002028217905092915050565b62000e588262000bd3565b67ffffffffffffffff81111562000e745762000e7362000bde565b5b62000e80825462000c3c565b62000e8d82828562000db2565b600060209050601f83116001811462000ec5576000841562000eb0578287015190505b62000ebc858262000e2f565b86555062000f2c565b601f19841662000ed58662000c71565b60005b8281101562000eff5784890151825560018201915060208501945060208101905062000ed8565b8683101562000f1f578489015162000f1b601f89168262000e0f565b8355505b6001600288020188555050505b505050505050565b7f4e487b7100000000000000000000000000000000000000000000000000000000600052601160045260246000fd5b600062000f708262000cf9565b91507fffffffffffffffffffffffffffffffffffffffffffffffffffffffffffffffff820362000fa55762000fa462000f34565b5b600182019050919050565b61405b8062000fc06000396000f3fe60806040526004361061014f5760003560e01c80637d02edad116100b6578063c35020751161006f578063c3502075146104ce578063cc3d967b146104f9578063dc3b0b0314610538578063df6d61b914610563578063df7b2dfe146105a0578063ea9d9901146105dd57610156565b80637d02edad1461037c578063862d9cd9146103bc57806391ea5dd2146103e5578063a87430ba1461040e578063b8ba95fa1461044d578063bab1104e1461049157610156565b806337f04e7f1161010857806337f04e7f146102485780634b8b319a1461028557806361bc221a146102c2578063637a0832146102ed57806376c12c51146103165780637865375c1461035357610156565b806302152d021461015b57806312065fe01461018657806321a090f1146101b157806322b35cc8146101da5780632ad680fd1461020357806336670cba1461022c57610156565b3661015657005b600080fd5b34801561016757600080fd5b5061017061061a565b60405161017d9190612a2f565b60405180910390f35b34801561019257600080fd5b5061019b610620565b6040516101a89190612a2f565b60405180910390f35b3480156101bd57600080fd5b506101d860048036038101906101d39190612c2e565b610628565b005b3480156101e657600080fd5b5061020160048036038101906101fc9190612c9d565b61068b565b005b34801561020f57600080fd5b5061022a60048036038101906102259190612cf9565b610ad7565b005b61024660048036038101906102419190612d39565b610bd4565b005b34801561025457600080fd5b5061026f600480360381019061026a9190612d82565b610ff6565b60405161027c9190612a2f565b60405180910390f35b34801561029157600080fd5b506102ac60048036038101906102a79190612cf9565b61100e565b6040516102b99190612dca565b60405180910390f35b3480156102ce57600080fd5b506102d7611076565b6040516102e49190612a2f565b60405180910390f35b3480156102f957600080fd5b50610314600480360381019061030f9190612de5565b61107c565b005b34801561032257600080fd5b5061033d60048036038101906103389190612d39565b61121a565b60405161034a9190612f2e565b60405180910390f35b34801561035f57600080fd5b5061037a60048036038101906103759190612f50565b6113f2565b005b34801561038857600080fd5b506103a3600480360381019061039e9190612fef565b611627565b6040516103b3949392919061309b565b60405180910390f35b3480156103c857600080fd5b506103e360048036038101906103de9190612cf9565b611774565b005b3480156103f157600080fd5b5061040c600480360381019061040791906130ee565b611871565b005b34801561041a57600080fd5b5061043560048036038101906104309190612fef565b611b3f565b60405161044493929190613159565b60405180910390f35b34801561045957600080fd5b50610474600480360381019061046f9190612d82565b611b89565b604051610488989796959493929190613190565b60405180910390f35b34801561049d57600080fd5b506104b860048036038101906104b39190612cf9565b611d0e565b6040516104c59190612dca565b60405180910390f35b3480156104da57600080fd5b506104e3611da0565b6040516104f091906132da565b60405180910390f35b34801561050557600080fd5b50610520600480360381019061051b9190612fef565b611f20565b60405161052f939291906132fc565b60405180910390f35b34801561054457600080fd5b5061054d6121a1565b60405161055a91906134d1565b60405180910390f35b34801561056f57600080fd5b5061058a60048036038101906105859190612cf9565b612530565b60405161059791906134f3565b60405180910390f35b3480156105ac57600080fd5b506105c760048036038101906105c29190612fef565b612613565b6040516105d49190613667565b60405180910390f35b3480156105e957600080fd5b5061060460048036038101906105ff9190612cf9565b61296a565b6040516106119190612a2f565b60405180910390f35b60065481565b600047905090565b80600b60008573ffffffffffffffffffffffffffffffffffffffff1673ffffffffffffffffffffffffffffffffffffffff168152602001908152602001600020600084815260200190815260200160002090816106859190613895565b50505050565b6000600654905060005b6006548110156106f2578380519060200120600160008381526020019081526020016000206001016040516106ca9190613a0a565b6040518091039020036106df578091506106f2565b80806106ea90613a50565b915050610695565b506006548110610737576040517f08c379a000000000000000000000000000000000000000000000000000000000815260040161072e90613ae4565b60405180910390fd5b6000600260003373ffffffffffffffffffffffffffffffffffffffff1673ffffffffffffffffffffffffffffffffffffffff168152602001908152602001600020905080600301600081548092919061078f90613a50565b919050555060006001600084815260200190815260200160002090503373ffffffffffffffffffffffffffffffffffffffff168160040160009054906101000a900473ffffffffffffffffffffffffffffffffffffffff1673ffffffffffffffffffffffffffffffffffffffff16148061081a57506001151560008054906101000a900460ff161515145b610859576040517f08c379a000000000000000000000000000000000000000000000000000000000815260040161085090613b76565b60405180910390fd5b8381600501600083600601548152602001908152602001600020600085815260200190815260200160002060006101000a81548173ffffffffffffffffffffffffffffffffffffffff021916908373ffffffffffffffffffffffffffffffffffffffff1602179055508060060160008154809291906108d790613a50565b91905055508160010160008154809291906108f190613a50565b9190505550816002018390806001815401808255809150506001900390600052602060002001600090919091909150556000600460003373ffffffffffffffffffffffffffffffffffffffff1673ffffffffffffffffffffffffffffffffffffffff168152602001908152602001600020905060005b8180549050811015610a25578482828154811061098757610986613b96565b5b906000526020600020015403610a125781600183805490506109a99190613bc5565b815481106109ba576109b9613b96565b5b90600052602060002001548282815481106109d8576109d7613b96565b5b9060005260206000200181905550818054806109f7576109f6613bf9565b5b60019003818190600052602060002001600090559055610a25565b8080610a1d90613a50565b915050610967565b50600460008673ffffffffffffffffffffffffffffffffffffffff1673ffffffffffffffffffffffffffffffffffffffff168152602001908152602001600020849080600181540180825580915050600190039060005260206000200160009091909190915055848260040160006101000a81548173ffffffffffffffffffffffffffffffffffffffff021916908373ffffffffffffffffffffffffffffffffffffffff160217905550505050505050565b600a60009054906101000a900473ffffffffffffffffffffffffffffffffffffffff1673ffffffffffffffffffffffffffffffffffffffff163373ffffffffffffffffffffffffffffffffffffffff1614610b67576040517f08c379a0000000000000000000000000000000000000000000000000000000008152600401610b5e90613c74565b60405180910390fd5b6001600c60008473ffffffffffffffffffffffffffffffffffffffff1673ffffffffffffffffffffffffffffffffffffffff168152602001908152602001600020600083815260200190815260200160002060006101000a81548160ff0219169083151502179055505050565b600360003373ffffffffffffffffffffffffffffffffffffffff1673ffffffffffffffffffffffffffffffffffffffff16815260200190815260200160002060030160009054906101000a900460ff16610c63576040517f08c379a0000000000000000000000000000000000000000000000000000000008152600401610c5a90613ce0565b60405180910390fd5b6000600654905060005b600654811015610cca57828051906020012060016000838152602001908152602001600020600101604051610ca29190613a0a565b604051809103902003610cb757809150610cca565b8080610cc290613a50565b915050610c6d565b506006548110610d0f576040517f08c379a0000000000000000000000000000000000000000000000000000000008152600401610d0690613ae4565b60405180910390fd5b6000600160008381526020019081526020016000209050600115158160080160009054906101000a900460ff16151514610d7e576040517f08c379a0000000000000000000000000000000000000000000000000000000008152600401610d7590613d4c565b60405180910390fd5b600073ffffffffffffffffffffffffffffffffffffffff168160040160009054906101000a900473ffffffffffffffffffffffffffffffffffffffff1673ffffffffffffffffffffffffffffffffffffffff1603610e11576040517f08c379a0000000000000000000000000000000000000000000000000000000008152600401610e0890613db8565b60405180910390fd5b8060070154670de0b6b3a764000034610e2a9190613e07565b14610e6a576040517f08c379a0000000000000000000000000000000000000000000000000000000008152600401610e6190613eaa565b60405180910390fd5b60008160040160009054906101000a900473ffffffffffffffffffffffffffffffffffffffff1690508073ffffffffffffffffffffffffffffffffffffffff166108fc349081150290604051600060405180830381858888f19350505050158015610ed9573d6000803e3d6000fd5b5060016000806101000a81548160ff0219169083151502179055506000600260008460040160009054906101000a900473ffffffffffffffffffffffffffffffffffffffff1673ffffffffffffffffffffffffffffffffffffffff1673ffffffffffffffffffffffffffffffffffffffff1681526020019081526020016000209050806002018481548110610f7157610f70613b96565b5b9060005260206000200160009055806001016000815480929190610f9490613eca565b9190505550610fa3853361068b565b60008060006101000a81548160ff02191690831515021790555060008360080160006101000a81548160ff0219169083151502179055506001600954610fe99190613bc5565b6009819055505050505050565b60076020528060005260406000206000915090505481565b6000600c60008473ffffffffffffffffffffffffffffffffffffffff1673ffffffffffffffffffffffffffffffffffffffff168152602001908152602001600020600083815260200190815260200160002060009054906101000a900460ff16905092915050565b60095481565b600360003373ffffffffffffffffffffffffffffffffffffffff1673ffffffffffffffffffffffffffffffffffffffff16815260200190815260200160002060030160009054906101000a900460ff161561110c576040517f08c379a000000000000000000000000000000000000000000000000000000000815260040161110390613f3f565b60405180910390fd5b604051806080016040528084815260200183815260200182815260200160011515815250600360003373ffffffffffffffffffffffffffffffffffffffff1673ffffffffffffffffffffffffffffffffffffffff16815260200190815260200160002060008201518160000190816111849190613895565b506020820151816001015560408201518160020190816111a49190613895565b5060608201518160030160006101000a81548160ff02191690831515021790555090505082600560003373ffffffffffffffffffffffffffffffffffffffff1673ffffffffffffffffffffffffffffffffffffffff16815260200190815260200160002090816112149190613895565b50505050565b60606000600654905060005b6006548110156112835783805190602001206001600083815260200190815260200160002060010160405161125b9190613a0a565b60405180910390200361127057809150611283565b808061127b90613a50565b915050611226565b5060065481106112c8576040517f08c379a00000000000000000000000000000000000000000000000000000000081526004016112bf90613ae4565b60405180910390fd5b60006001600083815260200190815260200160002090506000816006015467ffffffffffffffff8111156112ff576112fe612b03565b5b60405190808252806020026020018201604052801561132d5781602001602082028036833780820191505090505b50905060005b82600601548110156113e657826005016000828152602001908152602001600020600085815260200190815260200160002060009054906101000a900473ffffffffffffffffffffffffffffffffffffffff1682828151811061139957611398613b96565b5b602002602001019073ffffffffffffffffffffffffffffffffffffffff16908173ffffffffffffffffffffffffffffffffffffffff168152505080806113de90613a50565b915050611333565b50809350505050919050565b6000600260008373ffffffffffffffffffffffffffffffffffffffff1673ffffffffffffffffffffffffffffffffffffffff16815260200190815260200160002090506000600160006006548152602001908152602001600020905060065481600001819055508581600101908161146a9190613895565b508481600201908161147c9190613895565b50838160030181905550828160040160006101000a81548173ffffffffffffffffffffffffffffffffffffffff021916908373ffffffffffffffffffffffffffffffffffffffff16021790555060018160060181905550828160050160008081526020019081526020016000206000600654815260200190815260200160002060006101000a81548173ffffffffffffffffffffffffffffffffffffffff021916908373ffffffffffffffffffffffffffffffffffffffff1602179055506006600081548092919061154d90613a50565b919050555081600101600081548092919061156790613a50565b919050555081600301600081548092919061158190613a50565b91905055508160020181600001549080600181540180825580915050600190039060005260206000200160009091909190915055600460008473ffffffffffffffffffffffffffffffffffffffff1673ffffffffffffffffffffffffffffffffffffffff16815260200190815260200160002081600001549080600181540180825580915050600190039060005260206000200160009091909190915055505050505050565b600360205280600052604060002060009150905080600001805461164a906136b8565b80601f0160208091040260200160405190810160405280929190818152602001828054611676906136b8565b80156116c35780601f10611698576101008083540402835291602001916116c3565b820191906000526020600020905b8154815290600101906020018083116116a657829003601f168201915b5050505050908060010154908060020180546116de906136b8565b80601f016020809104026020016040519081016040528092919081815260200182805461170a906136b8565b80156117575780601f1061172c57610100808354040283529160200191611757565b820191906000526020600020905b81548152906001019060200180831161173a57829003601f168201915b5050505050908060030160009054906101000a900460ff16905084565b600a60009054906101000a900473ffffffffffffffffffffffffffffffffffffffff1673ffffffffffffffffffffffffffffffffffffffff163373ffffffffffffffffffffffffffffffffffffffff1614611804576040517f08c379a00000000000000000000000000000000000000000000000000000000081526004016117fb90613c74565b60405180910390fd5b6000600c60008473ffffffffffffffffffffffffffffffffffffffff1673ffffffffffffffffffffffffffffffffffffffff168152602001908152602001600020600083815260200190815260200160002060006101000a81548160ff0219169083151502179055505050565b600360003373ffffffffffffffffffffffffffffffffffffffff1673ffffffffffffffffffffffffffffffffffffffff16815260200190815260200160002060030160009054906101000a900460ff16611900576040517f08c379a00000000000000000000000000000000000000000000000000000000081526004016118f790613ce0565b60405180910390fd5b6000600260003373ffffffffffffffffffffffffffffffffffffffff1673ffffffffffffffffffffffffffffffffffffffff16815260200190815260200160002090506000600654905060005b6006548110156119aa578480519060200120600160008381526020019081526020016000206001016040516119829190613a0a565b604051809103902003611997578091506119aa565b80806119a290613a50565b91505061194d565b5060065481106119ef576040517f08c379a00000000000000000000000000000000000000000000000000000000081526004016119e690613ae4565b60405180910390fd5b60006001600083815260200190815260200160002090503373ffffffffffffffffffffffffffffffffffffffff168160040160009054906101000a900473ffffffffffffffffffffffffffffffffffffffff1673ffffffffffffffffffffffffffffffffffffffff1614611a98576040517f08c379a0000000000000000000000000000000000000000000000000000000008152600401611a8f90613fd1565b60405180910390fd5b83816007018190555060018160080160006101000a81548160ff02191690831515021790555081600760006009548152602001908152602001600020819055506001600954611ae79190613ff1565b6009819055508060080160009054906101000a900460ff16158015611b0c5750600084115b15611b385783816007018190555060018160080160006101000a81548160ff0219169083151502179055505b5050505050565b60026020528060005260406000206000915090508060000160009054906101000a900473ffffffffffffffffffffffffffffffffffffffff16908060010154908060030154905083565b6001602052806000526040600020600091509050806000015490806001018054611bb2906136b8565b80601f0160208091040260200160405190810160405280929190818152602001828054611bde906136b8565b8015611c2b5780601f10611c0057610100808354040283529160200191611c2b565b820191906000526020600020905b815481529060010190602001808311611c0e57829003601f168201915b505050505090806002018054611c40906136b8565b80601f0160208091040260200160405190810160405280929190818152602001828054611c6c906136b8565b8015611cb95780601f10611c8e57610100808354040283529160200191611cb9565b820191906000526020600020905b815481529060010190602001808311611c9c57829003601f168201915b5050505050908060030154908060040160009054906101000a900473ffffffffffffffffffffffffffffffffffffffff16908060060154908060070154908060080160009054906101000a900460ff16905088565b60007fc5d2460186f7233c927e7db2dcc703c0e500b653ca82273b7bfad8045d85a470600b60008573ffffffffffffffffffffffffffffffffffffffff1673ffffffffffffffffffffffffffffffffffffffff1681526020019081526020016000206000848152602001908152602001600020604051611d8e9190613a0a565b60405180910390201415905092915050565b6060600060065467ffffffffffffffff811115611dc057611dbf612b03565b5b604051908082528060200260200182016040528015611dee5781602001602082028036833780820191505090505b5090506000805b600654811015611e7057600115156001600083815260200190815260200160002060080160009054906101000a900460ff16151503611e5d5780838381518110611e4257611e41613b96565b5b6020026020010181815250508180611e5990613a50565b9250505b8080611e6890613a50565b915050611df5565b5060008167ffffffffffffffff811115611e8d57611e8c612b03565b5b604051908082528060200260200182016040528015611ebb5781602001602082028036833780820191505090505b50905060005b82811015611f1657838181518110611edc57611edb613b96565b5b6020026020010151828281518110611ef757611ef6613b96565b5b6020026020010181815250508080611f0e90613a50565b915050611ec1565b5080935050505090565b606060006060600360008573ffffffffffffffffffffffffffffffffffffffff1673ffffffffffffffffffffffffffffffffffffffff16815260200190815260200160002060030160009054906101000a900460ff16611fb5576040517f08c379a0000000000000000000000000000000000000000000000000000000008152600401611fac90613ce0565b60405180910390fd5b600360008573ffffffffffffffffffffffffffffffffffffffff1673ffffffffffffffffffffffffffffffffffffffff168152602001908152602001600020600001600360008673ffffffffffffffffffffffffffffffffffffffff1673ffffffffffffffffffffffffffffffffffffffff16815260200190815260200160002060010154600360008773ffffffffffffffffffffffffffffffffffffffff1673ffffffffffffffffffffffffffffffffffffffff168152602001908152602001600020600201828054612088906136b8565b80601f01602080910402602001604051908101604052809291908181526020018280546120b4906136b8565b80156121015780601f106120d657610100808354040283529160200191612101565b820191906000526020600020905b8154815290600101906020018083116120e457829003601f168201915b50505050509250808054612114906136b8565b80601f0160208091040260200160405190810160405280929190818152602001828054612140906136b8565b801561218d5780601f106121625761010080835404028352916020019161218d565b820191906000526020600020905b81548152906001019060200180831161217057829003601f168201915b505050505090509250925092509193909250565b6060600060095467ffffffffffffffff8111156121c1576121c0612b03565b5b6040519080825280602002602001820160405280156121fa57816020015b6121e761299b565b8152602001906001900390816121df5790505b5090506000805b600954811015612527576040518060a001604052806001600060076000868152602001908152602001600020548152602001908152602001600020600201805461224a906136b8565b80601f0160208091040260200160405190810160405280929190818152602001828054612276906136b8565b80156122c35780601f10612298576101008083540402835291602001916122c3565b820191906000526020600020905b8154815290600101906020018083116122a657829003601f168201915b50505050508152602001600160006007600086815260200190815260200160002054815260200190815260200160002060030154815260200160016000600760008681526020019081526020016000205481526020019081526020016000206001018054612330906136b8565b80601f016020809104026020016040519081016040528092919081815260200182805461235c906136b8565b80156123a95780601f1061237e576101008083540402835291602001916123a9565b820191906000526020600020905b81548152906001019060200180831161238c57829003601f168201915b5050505050815260200160056000600160006007600088815260200190815260200160002054815260200190815260200160002060040160009054906101000a900473ffffffffffffffffffffffffffffffffffffffff1673ffffffffffffffffffffffffffffffffffffffff1673ffffffffffffffffffffffffffffffffffffffff1681526020019081526020016000208054612446906136b8565b80601f0160208091040260200160405190810160405280929190818152602001828054612472906136b8565b80156124bf5780601f10612494576101008083540402835291602001916124bf565b820191906000526020600020905b8154815290600101906020018083116124a257829003601f168201915b5050505050815260200160016000600760008681526020019081526020016000205481526020019081526020016000206007015481525083828151811061250957612508613b96565b5b6020026020010181905250808061251f90613a50565b915050612201565b50819250505090565b6060600b60008473ffffffffffffffffffffffffffffffffffffffff1673ffffffffffffffffffffffffffffffffffffffff1681526020019081526020016000206000838152602001908152602001600020805461258d906136b8565b80601f01602080910402602001604051908101604052809291908181526020018280546125b9906136b8565b80156126065780601f106125db57610100808354040283529160200191612606565b820191906000526020600020905b8154815290600101906020018083116125e957829003601f168201915b5050505050905092915050565b60606000600260008473ffffffffffffffffffffffffffffffffffffffff1673ffffffffffffffffffffffffffffffffffffffff168152602001908152602001600020905060008160010154905060008260030154905060008267ffffffffffffffff81111561268657612685612b03565b5b6040519080825280602002602001820160405280156126bf57816020015b6126ac6129ca565b8152602001906001900390816126a45790505b5090506000805b8381101561295c5760008660020182815481106126e6576126e5613b96565b5b906000526020600020015490508873ffffffffffffffffffffffffffffffffffffffff166001600083815260200190815260200160002060040160009054906101000a900473ffffffffffffffffffffffffffffffffffffffff1673ffffffffffffffffffffffffffffffffffffffff1603612948576040518060c00160405280600160008481526020019081526020016000206000015481526020016001600084815260200190815260200160002060010180546127a4906136b8565b80601f01602080910402602001604051908101604052809291908181526020018280546127d0906136b8565b801561281d5780601f106127f25761010080835404028352916020019161281d565b820191906000526020600020905b81548152906001019060200180831161280057829003601f168201915b505050505081526020018a73ffffffffffffffffffffffffffffffffffffffff168152602001600160008481526020019081526020016000206002018054612864906136b8565b80601f0160208091040260200160405190810160405280929190818152602001828054612890906136b8565b80156128dd5780601f106128b2576101008083540402835291602001916128dd565b820191906000526020600020905b8154815290600101906020018083116128c057829003601f168201915b5050505050815260200160016000848152602001908152602001600020600301548152602001600160008481526020019081526020016000206006015481525084848061292990613a50565b95508151811061293c5761293b613b96565b5b60200260200101819052505b50808061295490613a50565b9150506126c6565b508195505050505050919050565b6004602052816000526040600020818154811061298657600080fd5b90600052602060002001600091509150505481565b6040518060a0016040528060608152602001600081526020016060815260200160608152602001600081525090565b6040518060c001604052806000815260200160608152602001600073ffffffffffffffffffffffffffffffffffffffff1681526020016060815260200160008152602001600081525090565b6000819050919050565b612a2981612a16565b82525050565b6000602082019050612a446000830184612a20565b92915050565b6000604051905090565b600080fd5b600080fd5b600073ffffffffffffffffffffffffffffffffffffffff82169050919050565b6000612a8982612a5e565b9050919050565b612a9981612a7e565b8114612aa457600080fd5b50565b600081359050612ab681612a90565b92915050565b612ac581612a16565b8114612ad057600080fd5b50565b600081359050612ae281612abc565b92915050565b600080fd5b600080fd5b6000601f19601f8301169050919050565b7f4e487b7100000000000000000000000000000000000000000000000000000000600052604160045260246000fd5b612b3b82612af2565b810181811067ffffffffffffffff82111715612b5a57612b59612b03565b5b80604052505050565b6000612b6d612a4a565b9050612b798282612b32565b919050565b600067ffffffffffffffff821115612b9957612b98612b03565b5b612ba282612af2565b9050602081019050919050565b82818337600083830152505050565b6000612bd1612bcc84612b7e565b612b63565b905082815260208101848484011115612bed57612bec612aed565b5b612bf8848285612baf565b509392505050565b600082601f830112612c1557612c14612ae8565b5b8135612c25848260208601612bbe565b91505092915050565b600080600060608486031215612c4757612c46612a54565b5b6000612c5586828701612aa7565b9350506020612c6686828701612ad3565b925050604084013567ffffffffffffffff811115612c8757612c86612a59565b5b612c9386828701612c00565b9150509250925092565b60008060408385031215612cb457612cb3612a54565b5b600083013567ffffffffffffffff811115612cd257612cd1612a59565b5b612cde85828601612c00565b9250506020612cef85828601612aa7565b9150509250929050565b60008060408385031215612d1057612d0f612a54565b5b6000612d1e85828601612aa7565b9250506020612d2f85828601612ad3565b9150509250929050565b600060208284031215612d4f57612d4e612a54565b5b600082013567ffffffffffffffff811115612d6d57612d6c612a59565b5b612d7984828501612c00565b91505092915050565b600060208284031215612d9857612d97612a54565b5b6000612da684828501612ad3565b91505092915050565b60008115159050919050565b612dc481612daf565b82525050565b6000602082019050612ddf6000830184612dbb565b92915050565b600080600060608486031215612dfe57612dfd612a54565b5b600084013567ffffffffffffffff811115612e1c57612e1b612a59565b5b612e2886828701612c00565b9350506020612e3986828701612ad3565b925050604084013567ffffffffffffffff811115612e5a57612e59612a59565b5b612e6686828701612c00565b9150509250925092565b600081519050919050565b600082825260208201905092915050565b6000819050602082019050919050565b612ea581612a7e565b82525050565b6000612eb78383612e9c565b60208301905092915050565b6000602082019050919050565b6000612edb82612e70565b612ee58185612e7b565b9350612ef083612e8c565b8060005b83811015612f21578151612f088882612eab565b9750612f1383612ec3565b925050600181019050612ef4565b5085935050505092915050565b60006020820190508181036000830152612f488184612ed0565b905092915050565b60008060008060808587031215612f6a57612f69612a54565b5b600085013567ffffffffffffffff811115612f8857612f87612a59565b5b612f9487828801612c00565b945050602085013567ffffffffffffffff811115612fb557612fb4612a59565b5b612fc187828801612c00565b9350506040612fd287828801612ad3565b9250506060612fe387828801612aa7565b91505092959194509250565b60006020828403121561300557613004612a54565b5b600061301384828501612aa7565b91505092915050565b600081519050919050565b600082825260208201905092915050565b60005b8381101561305657808201518184015260208101905061303b565b60008484015250505050565b600061306d8261301c565b6130778185613027565b9350613087818560208601613038565b61309081612af2565b840191505092915050565b600060808201905081810360008301526130b58187613062565b90506130c46020830186612a20565b81810360408301526130d68185613062565b90506130e56060830184612dbb565b95945050505050565b6000806040838503121561310557613104612a54565b5b600083013567ffffffffffffffff81111561312357613122612a59565b5b61312f85828601612c00565b925050602061314085828601612ad3565b9150509250929050565b61315381612a7e565b82525050565b600060608201905061316e600083018661314a565b61317b6020830185612a20565b6131886040830184612a20565b949350505050565b6000610100820190506131a6600083018b612a20565b81810360208301526131b8818a613062565b905081810360408301526131cc8189613062565b90506131db6060830188612a20565b6131e8608083018761314a565b6131f560a0830186612a20565b61320260c0830185612a20565b61320f60e0830184612dbb565b9998505050505050505050565b600081519050919050565b600082825260208201905092915050565b6000819050602082019050919050565b61325181612a16565b82525050565b60006132638383613248565b60208301905092915050565b6000602082019050919050565b60006132878261321c565b6132918185613227565b935061329c83613238565b8060005b838110156132cd5781516132b48882613257565b97506132bf8361326f565b9250506001810190506132a0565b5085935050505092915050565b600060208201905081810360008301526132f4818461327c565b905092915050565b600060608201905081810360008301526133168186613062565b90506133256020830185612a20565b81810360408301526133378184613062565b9050949350505050565b600081519050919050565b600082825260208201905092915050565b6000819050602082019050919050565b600082825260208201905092915050565b60006133898261301c565b613393818561336d565b93506133a3818560208601613038565b6133ac81612af2565b840191505092915050565b600060a08301600083015184820360008601526133d4828261337e565b91505060208301516133e96020860182613248565b5060408301518482036040860152613401828261337e565b9150506060830151848203606086015261341b828261337e565b91505060808301516134306080860182613248565b508091505092915050565b600061344783836133b7565b905092915050565b6000602082019050919050565b600061346782613341565b613471818561334c565b9350836020820285016134838561335d565b8060005b858110156134bf57848403895281516134a0858261343b565b94506134ab8361344f565b925060208a01995050600181019050613487565b50829750879550505050505092915050565b600060208201905081810360008301526134eb818461345c565b905092915050565b6000602082019050818103600083015261350d8184613062565b905092915050565b600081519050919050565b600082825260208201905092915050565b6000819050602082019050919050565b600060c0830160008301516135596000860182613248565b5060208301518482036020860152613571828261337e565b91505060408301516135866040860182612e9c565b506060830151848203606086015261359e828261337e565b91505060808301516135b36080860182613248565b5060a08301516135c660a0860182613248565b508091505092915050565b60006135dd8383613541565b905092915050565b6000602082019050919050565b60006135fd82613515565b6136078185613520565b93508360208202850161361985613531565b8060005b85811015613655578484038952815161363685826135d1565b9450613641836135e5565b925060208a0199505060018101905061361d565b50829750879550505050505092915050565b6000602082019050818103600083015261368181846135f2565b905092915050565b7f4e487b7100000000000000000000000000000000000000000000000000000000600052602260045260246000fd5b600060028204905060018216806136d057607f821691505b6020821081036136e3576136e2613689565b5b50919050565b60008190508160005260206000209050919050565b60006020601f8301049050919050565b600082821b905092915050565b60006008830261374b7fffffffffffffffffffffffffffffffffffffffffffffffffffffffffffffffff8261370e565b613755868361370e565b95508019841693508086168417925050509392505050565b6000819050919050565b600061379261378d61378884612a16565b61376d565b612a16565b9050919050565b6000819050919050565b6137ac83613777565b6137c06137b882613799565b84845461371b565b825550505050565b600090565b6137d56137c8565b6137e08184846137a3565b505050565b5b81811015613804576137f96000826137cd565b6001810190506137e6565b5050565b601f8211156138495761381a816136e9565b613823846136fe565b81016020851015613832578190505b61384661383e856136fe565b8301826137e5565b50505b505050565b600082821c905092915050565b600061386c6000198460080261384e565b1980831691505092915050565b6000613885838361385b565b9150826002028217905092915050565b61389e8261301c565b67ffffffffffffffff8111156138b7576138b6612b03565b5b6138c182546136b8565b6138cc828285613808565b600060209050601f8311600181146138ff57600084156138ed578287015190505b6138f78582613879565b86555061395f565b601f19841661390d866136e9565b60005b8281101561393557848901518255600182019150602085019450602081019050613910565b86831015613952578489015161394e601f89168261385b565b8355505b6001600288020188555050505b505050505050565b600081905092915050565b60008190508160005260206000209050919050565b60008154613994816136b8565b61399e8186613967565b945060018216600081146139b957600181146139ce57613a01565b60ff1983168652811515820286019350613a01565b6139d785613972565b60005b838110156139f9578154818901526001820191506020810190506139da565b838801955050505b50505092915050565b6000613a168284613987565b915081905092915050565b7f4e487b7100000000000000000000000000000000000000000000000000000000600052601160045260246000fd5b6000613a5b82612a16565b91507fffffffffffffffffffffffffffffffffffffffffffffffffffffffffffffffff8203613a8d57613a8c613a21565b5b600182019050919050565b7f496e76616c6964204e756d62657220706c617465000000000000000000000000600082015250565b6000613ace601483613027565b9150613ad982613a98565b602082019050919050565b60006020820190508181036000830152613afd81613ac1565b9050919050565b7f4f6e6c79207468652063757272656e74206f776e65722063616e207472616e7360008201527f666572207468652076656869636c650000000000000000000000000000000000602082015250565b6000613b60602f83613027565b9150613b6b82613b04565b604082019050919050565b60006020820190508181036000830152613b8f81613b53565b9050919050565b7f4e487b7100000000000000000000000000000000000000000000000000000000600052603260045260246000fd5b6000613bd082612a16565b9150613bdb83612a16565b9250828203905081811115613bf357613bf2613a21565b5b92915050565b7f4e487b7100000000000000000000000000000000000000000000000000000000600052603160045260246000fd5b7f596f752073686f756c642062652074686520636f6e7472616374206f776e6572600082015250565b6000613c5e602083613027565b9150613c6982613c28565b602082019050919050565b60006020820190508181036000830152613c8d81613c51565b9050919050565b7f5573657220646f6573206e6f7420657869737400000000000000000000000000600082015250565b6000613cca601383613027565b9150613cd582613c94565b602082019050919050565b60006020820190508181036000830152613cf981613cbd565b9050919050565b7f56656869636c65206e6f7420666f722073616c65000000000000000000000000600082015250565b6000613d36601483613027565b9150613d4182613d00565b602082019050919050565b60006020820190508181036000830152613d6581613d29565b9050919050565b7f56656869636c6520646f6573206e6f7420657869737400000000000000000000600082015250565b6000613da2601683613027565b9150613dad82613d6c565b602082019050919050565b60006020820190508181036000830152613dd181613d95565b9050919050565b7f4e487b7100000000000000000000000000000000000000000000000000000000600052601260045260246000fd5b6000613e1282612a16565b9150613e1d83612a16565b925082613e2d57613e2c613dd8565b5b828204905092915050565b7f496e73756666696369656e742066756e647320746f206275792074686520766560008201527f6869636c65000000000000000000000000000000000000000000000000000000602082015250565b6000613e94602583613027565b9150613e9f82613e38565b604082019050919050565b60006020820190508181036000830152613ec381613e87565b9050919050565b6000613ed582612a16565b915060008203613ee857613ee7613a21565b5b600182039050919050565b7f5573657220616c72656164792065786973747300000000000000000000000000600082015250565b6000613f29601383613027565b9150613f3482613ef3565b602082019050919050565b60006020820190508181036000830152613f5881613f1c565b9050919050565b7f4f6e6c79207468652063757272656e74206f776e65722063616e20736574207460008201527f6865207072696365206f66207468652076656869636c65000000000000000000602082015250565b6000613fbb603783613027565b9150613fc682613f5f565b604082019050919050565b60006020820190508181036000830152613fea81613fae565b9050919050565b6000613ffc82612a16565b915061400783612a16565b925082820190508082111561401f5761401e613a21565b5b9291505056fea2646970667358221220246ab4885d7b85669746afb34ceac70393df512741c309755a11aae76447727764736f6c634300081300334d6168696e647261204b555620313030206d46414c434f4e20473830204b382035737472466f7264204669676f2044696573656c2043656c6562726174696f6e2045646974696f6e",
  "linkReferences": {},
  "deployedLinkReferences": {}
}