{
  "_format": "hh-sol-artifact-1",
  "contractName": "VehicleManagement",
  "sourceName": "contracts/VehicleManagement.sol",
  "abi": [
    {
      "inputs": [],
      "stateMutability": "nonpayable",
      "type": "constructor"
    },
    {
      "inputs": [
        {
          "internalType": "string",
          "name": "_numberPlate",
          "type": "string"
        },
        {
          "internalType": "string",
          "name": "_carName",
          "type": "string"
        },
        {
          "internalType": "uint256",
          "name": "_year",
          "type": "uint256"
        },
        {
          "internalType": "address",
          "name": "_address",
          "type": "address"
        }
      ],
      "name": "addVehicle",
      "outputs": [],
      "stateMutability": "nonpayable",
      "type": "function"
    },
    {
      "inputs": [
        {
          "internalType": "string",
          "name": "_numberPlate",
          "type": "string"
        }
      ],
      "name": "buyVehicle",
      "outputs": [],
      "stateMutability": "payable",
      "type": "function"
    },
    {
      "inputs": [],
      "name": "counter",
      "outputs": [
        {
          "internalType": "uint256",
          "name": "",
          "type": "uint256"
        }
      ],
      "stateMutability": "view",
      "type": "function"
    },
    {
      "inputs": [
        {
          "internalType": "address",
          "name": "userAddress",
          "type": "address"
        }
      ],
      "name": "displayVehiclesOwned",
      "outputs": [
        {
          "components": [
            {
              "internalType": "uint256",
              "name": "id",
              "type": "uint256"
            },
            {
              "internalType": "string",
              "name": "numberPlate",
              "type": "string"
            },
            {
              "internalType": "address",
              "name": "userAddress",
              "type": "address"
            },
            {
              "internalType": "string",
              "name": "carName",
              "type": "string"
            },
            {
              "internalType": "uint256",
              "name": "year",
              "type": "uint256"
            },
            {
              "internalType": "uint256",
              "name": "ownerHistoryCount",
              "type": "uint256"
            }
          ],
          "internalType": "struct VehicleManagement.VehiclesOwned[]",
          "name": "",
          "type": "tuple[]"
        }
      ],
      "stateMutability": "view",
      "type": "function"
    },
    {
      "inputs": [],
      "name": "displayVehiclesforSale",
      "outputs": [
        {
          "internalType": "uint256[]",
          "name": "",
          "type": "uint256[]"
        }
      ],
      "stateMutability": "view",
      "type": "function"
    },
    {
      "inputs": [],
      "name": "getBalance",
      "outputs": [
        {
          "internalType": "uint256",
          "name": "",
          "type": "uint256"
        }
      ],
      "stateMutability": "view",
      "type": "function"
    },
    {
      "inputs": [
        {
          "internalType": "address",
          "name": "_user",
          "type": "address"
        }
      ],
      "name": "getUserDetails",
      "outputs": [
        {
          "internalType": "string",
          "name": "",
          "type": "string"
        },
        {
          "internalType": "uint256",
          "name": "",
          "type": "uint256"
        },
        {
          "internalType": "string",
          "name": "",
          "type": "string"
        }
      ],
      "stateMutability": "view",
      "type": "function"
    },
    {
      "inputs": [
        {
          "internalType": "string",
          "name": "_numberPlate",
          "type": "string"
        }
      ],
      "name": "getVehicleOwnerHistory",
      "outputs": [
        {
          "internalType": "address[]",
          "name": "",
          "type": "address[]"
        }
      ],
      "stateMutability": "view",
      "type": "function"
    },
    {
      "inputs": [],
      "name": "getVehiclesWithPriceSet",
      "outputs": [
        {
          "components": [
            {
              "internalType": "string",
              "name": "carName",
              "type": "string"
            },
            {
              "internalType": "uint256",
              "name": "year",
              "type": "uint256"
            },
            {
              "internalType": "string",
              "name": "numberPlate",
              "type": "string"
            },
            {
              "internalType": "string",
              "name": "ownerName",
              "type": "string"
            },
            {
              "internalType": "uint256",
              "name": "price",
              "type": "uint256"
            }
          ],
          "internalType": "struct VehicleManagement.VehicleDetails[]",
          "name": "",
          "type": "tuple[]"
        }
      ],
      "stateMutability": "view",
      "type": "function"
    },
    {
      "inputs": [
        {
          "internalType": "string",
          "name": "name",
          "type": "string"
        },
        {
          "internalType": "uint256",
          "name": "age",
          "type": "uint256"
        },
        {
          "internalType": "string",
          "name": "email",
          "type": "string"
        }
      ],
      "name": "register",
      "outputs": [],
      "stateMutability": "nonpayable",
      "type": "function"
    },
    {
      "inputs": [
        {
          "internalType": "string",
          "name": "_numberPlate",
          "type": "string"
        },
        {
          "internalType": "uint256",
          "name": "_price",
          "type": "uint256"
        }
      ],
      "name": "setVehiclePrice",
      "outputs": [],
      "stateMutability": "nonpayable",
      "type": "function"
    },
    {
      "inputs": [],
      "name": "totalVehicles",
      "outputs": [
        {
          "internalType": "uint256",
          "name": "",
          "type": "uint256"
        }
      ],
      "stateMutability": "view",
      "type": "function"
    },
    {
      "inputs": [
        {
          "internalType": "string",
          "name": "_numberPlate",
          "type": "string"
        },
        {
          "internalType": "address",
          "name": "_newOwner",
          "type": "address"
        }
      ],
      "name": "transferVehicle",
      "outputs": [],
      "stateMutability": "nonpayable",
      "type": "function"
    },
    {
      "inputs": [
        {
          "internalType": "address",
          "name": "",
          "type": "address"
        }
      ],
      "name": "userdetails",
      "outputs": [
        {
          "internalType": "string",
          "name": "name",
          "type": "string"
        },
        {
          "internalType": "uint256",
          "name": "age",
          "type": "uint256"
        },
        {
          "internalType": "string",
          "name": "email",
          "type": "string"
        },
        {
          "internalType": "bool",
          "name": "exists",
          "type": "bool"
        }
      ],
      "stateMutability": "view",
      "type": "function"
    },
    {
      "inputs": [
        {
          "internalType": "address",
          "name": "",
          "type": "address"
        }
      ],
      "name": "users",
      "outputs": [
        {
          "internalType": "address",
          "name": "userAdd",
          "type": "address"
        },
        {
          "internalType": "uint256",
          "name": "currentVehicles",
          "type": "uint256"
        },
        {
          "internalType": "uint256",
          "name": "counterTotalVehiclesOwned",
          "type": "uint256"
        }
      ],
      "stateMutability": "view",
      "type": "function"
    },
    {
      "inputs": [
        {
          "internalType": "address",
          "name": "",
          "type": "address"
        },
        {
          "internalType": "uint256",
          "name": "",
          "type": "uint256"
        }
      ],
      "name": "vehicleOwned",
      "outputs": [
        {
          "internalType": "uint256",
          "name": "",
          "type": "uint256"
        }
      ],
      "stateMutability": "view",
      "type": "function"
    },
    {
      "inputs": [
        {
          "internalType": "uint256",
          "name": "",
          "type": "uint256"
        }
      ],
      "name": "vehicles",
      "outputs": [
        {
          "internalType": "uint256",
          "name": "id",
          "type": "uint256"
        },
        {
          "internalType": "string",
          "name": "numberPlate",
          "type": "string"
        },
        {
          "internalType": "string",
          "name": "carName",
          "type": "string"
        },
        {
          "internalType": "uint256",
          "name": "year",
          "type": "uint256"
        },
        {
          "internalType": "address",
          "name": "owner",
          "type": "address"
        },
        {
          "internalType": "uint256",
          "name": "ownerHistoryCount",
          "type": "uint256"
        },
        {
          "internalType": "uint256",
          "name": "price",
          "type": "uint256"
        },
        {
          "internalType": "bool",
          "name": "priceSet",
          "type": "bool"
        }
      ],
      "stateMutability": "view",
      "type": "function"
    },
    {
      "inputs": [
        {
          "internalType": "uint256",
          "name": "",
          "type": "uint256"
        }
      ],
      "name": "vehiclesWithPriceSet",
      "outputs": [
        {
          "internalType": "uint256",
          "name": "",
          "type": "uint256"
        }
      ],
      "stateMutability": "view",
      "type": "function"
    },
    {
      "stateMutability": "payable",
      "type": "receive"
    }
  ],
  "bytecode": "0x608060405260008060006101000a81548160ff02191690831515021790555060006009553480156200003057600080fd5b50620000c56040518060400160405280600a81526020017f4d483034414130303031000000000000000000000000000000000000000000008152506040518060400160405280601681526020017f4d617275746920537769667420447a69726520564449000000000000000000008152506107de7370997970c51812dc3a010c7d01b50e0d17dc79c86200028760201b60201c565b620001596040518060400160405280600a81526020017f4d483134414230303031000000000000000000000000000000000000000000008152506040518060400160405280601c81526020017f536b6f646120526170696420312e352054444920416d626974696f6e000000008152506107de7370997970c51812dc3a010c7d01b50e0d17dc79c86200028760201b60201c565b620001ed6040518060400160405280600a81526020017f4d483331414330303032000000000000000000000000000000000000000000008152506040518060400160405280601881526020017f486f6e6461204369747920323031372d323032302045586900000000000000008152506107d673f39fd6e51aad88f6f4ce6ab8827279cfffb922666200028760201b60201c565b620002816040518060400160405280600a81526020017f544e3034414430303033000000000000000000000000000000000000000000008152506040518060400160405280601981526020017f4879756e646169206932302053706f72747a2044696573656c000000000000008152506107da73f39fd6e51aad88f6f4ce6ab8827279cfffb922666200028760201b60201c565b620008a3565b6000600260008373ffffffffffffffffffffffffffffffffffffffff1673ffffffffffffffffffffffffffffffffffffffff16815260200190815260200160002090506000600160006006548152602001908152602001600020905060065481600001819055508581600101908162000301919062000740565b508481600201908162000315919062000740565b50838160030181905550828160040160006101000a81548173ffffffffffffffffffffffffffffffffffffffff021916908373ffffffffffffffffffffffffffffffffffffffff16021790555060018160060181905550828160050160008081526020019081526020016000206000600654815260200190815260200160002060006101000a81548173ffffffffffffffffffffffffffffffffffffffff021916908373ffffffffffffffffffffffffffffffffffffffff16021790555060066000815480929190620003e89062000856565b9190505550816001016000815480929190620004049062000856565b9190505550816003016000815480929190620004209062000856565b91905055508160020181600001549080600181540180825580915050600190039060005260206000200160009091909190915055600460008473ffffffffffffffffffffffffffffffffffffffff1673ffffffffffffffffffffffffffffffffffffffff16815260200190815260200160002081600001549080600181540180825580915050600190039060005260206000200160009091909190915055505050505050565b600081519050919050565b7f4e487b7100000000000000000000000000000000000000000000000000000000600052604160045260246000fd5b7f4e487b7100000000000000000000000000000000000000000000000000000000600052602260045260246000fd5b600060028204905060018216806200054857607f821691505b6020821081036200055e576200055d62000500565b5b50919050565b60008190508160005260206000209050919050565b60006020601f8301049050919050565b600082821b905092915050565b600060088302620005c87fffffffffffffffffffffffffffffffffffffffffffffffffffffffffffffffff8262000589565b620005d4868362000589565b95508019841693508086168417925050509392505050565b6000819050919050565b6000819050919050565b6000620006216200061b6200061584620005ec565b620005f6565b620005ec565b9050919050565b6000819050919050565b6200063d8362000600565b620006556200064c8262000628565b84845462000596565b825550505050565b600090565b6200066c6200065d565b6200067981848462000632565b505050565b5b81811015620006a1576200069560008262000662565b6001810190506200067f565b5050565b601f821115620006f057620006ba8162000564565b620006c58462000579565b81016020851015620006d5578190505b620006ed620006e48562000579565b8301826200067e565b50505b505050565b600082821c905092915050565b60006200071560001984600802620006f5565b1980831691505092915050565b600062000730838362000702565b9150826002028217905092915050565b6200074b82620004c6565b67ffffffffffffffff811115620007675762000766620004d1565b5b6200077382546200052f565b62000780828285620006a5565b600060209050601f831160018114620007b85760008415620007a3578287015190505b620007af858262000722565b8655506200081f565b601f198416620007c88662000564565b60005b82811015620007f257848901518255600182019150602085019450602081019050620007cb565b868310156200081257848901516200080e601f89168262000702565b8355505b6001600288020188555050505b505050505050565b7f4e487b7100000000000000000000000000000000000000000000000000000000600052601160045260246000fd5b60006200086382620005ec565b91507fffffffffffffffffffffffffffffffffffffffffffffffffffffffffffffffff820362000898576200089762000827565b5b600182019050919050565b61399580620008b36000396000f3fe60806040526004361061010d5760003560e01c80637d02edad11610095578063c350207511610064578063c350207514610397578063cc3d967b146103c2578063dc3b0b0314610401578063df7b2dfe1461042c578063ea9d99011461046957610114565b80637d02edad146102ab57806391ea5dd2146102eb578063a87430ba14610314578063b8ba95fa1461035357610114565b806337f04e7f116100dc57806337f04e7f146101b457806361bc221a146101f1578063637a08321461021c57806376c12c51146102455780637865375c1461028257610114565b806302152d021461011957806312065fe01461014457806322b35cc81461016f57806336670cba1461019857610114565b3661011457005b600080fd5b34801561012557600080fd5b5061012e6104a6565b60405161013b9190612481565b60405180910390f35b34801561015057600080fd5b506101596104ac565b6040516101669190612481565b60405180910390f35b34801561017b57600080fd5b5061019660048036038101906101919190612654565b6104b4565b005b6101b260048036038101906101ad91906126b0565b610900565b005b3480156101c057600080fd5b506101db60048036038101906101d69190612725565b610d22565b6040516101e89190612481565b60405180910390f35b3480156101fd57600080fd5b50610206610d3a565b6040516102139190612481565b60405180910390f35b34801561022857600080fd5b50610243600480360381019061023e9190612752565b610d40565b005b34801561025157600080fd5b5061026c600480360381019061026791906126b0565b610ede565b604051610279919061289b565b60405180910390f35b34801561028e57600080fd5b506102a960048036038101906102a491906128bd565b6110b6565b005b3480156102b757600080fd5b506102d260048036038101906102cd919061295c565b6112eb565b6040516102e29493929190612a23565b60405180910390f35b3480156102f757600080fd5b50610312600480360381019061030d9190612a76565b611438565b005b34801561032057600080fd5b5061033b6004803603810190610336919061295c565b611706565b60405161034a93929190612ae1565b60405180910390f35b34801561035f57600080fd5b5061037a60048036038101906103759190612725565b611750565b60405161038e989796959493929190612b18565b60405180910390f35b3480156103a357600080fd5b506103ac6118d5565b6040516103b99190612c62565b60405180910390f35b3480156103ce57600080fd5b506103e960048036038101906103e4919061295c565b611a55565b6040516103f893929190612c84565b60405180910390f35b34801561040d57600080fd5b50610416611cd6565b6040516104239190612e59565b60405180910390f35b34801561043857600080fd5b50610453600480360381019061044e919061295c565b612065565b6040516104609190612fcd565b60405180910390f35b34801561047557600080fd5b50610490600480360381019061048b9190612fef565b6123bc565b60405161049d9190612481565b60405180910390f35b60065481565b600047905090565b6000600654905060005b60065481101561051b578380519060200120600160008381526020019081526020016000206001016040516104f39190613132565b6040518091039020036105085780915061051b565b808061051390613178565b9150506104be565b506006548110610560576040517f08c379a00000000000000000000000000000000000000000000000000000000081526004016105579061320c565b60405180910390fd5b6000600260003373ffffffffffffffffffffffffffffffffffffffff1673ffffffffffffffffffffffffffffffffffffffff16815260200190815260200160002090508060030160008154809291906105b890613178565b919050555060006001600084815260200190815260200160002090503373ffffffffffffffffffffffffffffffffffffffff168160040160009054906101000a900473ffffffffffffffffffffffffffffffffffffffff1673ffffffffffffffffffffffffffffffffffffffff16148061064357506001151560008054906101000a900460ff161515145b610682576040517f08c379a00000000000000000000000000000000000000000000000000000000081526004016106799061329e565b60405180910390fd5b8381600501600083600601548152602001908152602001600020600085815260200190815260200160002060006101000a81548173ffffffffffffffffffffffffffffffffffffffff021916908373ffffffffffffffffffffffffffffffffffffffff16021790555080600601600081548092919061070090613178565b919050555081600101600081548092919061071a90613178565b9190505550816002018390806001815401808255809150506001900390600052602060002001600090919091909150556000600460003373ffffffffffffffffffffffffffffffffffffffff1673ffffffffffffffffffffffffffffffffffffffff168152602001908152602001600020905060005b818054905081101561084e57848282815481106107b0576107af6132be565b5b90600052602060002001540361083b5781600183805490506107d291906132ed565b815481106107e3576107e26132be565b5b9060005260206000200154828281548110610801576108006132be565b5b9060005260206000200181905550818054806108205761081f613321565b5b6001900381819060005260206000200160009055905561084e565b808061084690613178565b915050610790565b50600460008673ffffffffffffffffffffffffffffffffffffffff1673ffffffffffffffffffffffffffffffffffffffff168152602001908152602001600020849080600181540180825580915050600190039060005260206000200160009091909190915055848260040160006101000a81548173ffffffffffffffffffffffffffffffffffffffff021916908373ffffffffffffffffffffffffffffffffffffffff160217905550505050505050565b600360003373ffffffffffffffffffffffffffffffffffffffff1673ffffffffffffffffffffffffffffffffffffffff16815260200190815260200160002060030160009054906101000a900460ff1661098f576040517f08c379a00000000000000000000000000000000000000000000000000000000081526004016109869061339c565b60405180910390fd5b6000600654905060005b6006548110156109f6578280519060200120600160008381526020019081526020016000206001016040516109ce9190613132565b6040518091039020036109e3578091506109f6565b80806109ee90613178565b915050610999565b506006548110610a3b576040517f08c379a0000000000000000000000000000000000000000000000000000000008152600401610a329061320c565b60405180910390fd5b6000600160008381526020019081526020016000209050600115158160080160009054906101000a900460ff16151514610aaa576040517f08c379a0000000000000000000000000000000000000000000000000000000008152600401610aa190613408565b60405180910390fd5b600073ffffffffffffffffffffffffffffffffffffffff168160040160009054906101000a900473ffffffffffffffffffffffffffffffffffffffff1673ffffffffffffffffffffffffffffffffffffffff1603610b3d576040517f08c379a0000000000000000000000000000000000000000000000000000000008152600401610b3490613474565b60405180910390fd5b8060070154670de0b6b3a764000034610b5691906134c3565b14610b96576040517f08c379a0000000000000000000000000000000000000000000000000000000008152600401610b8d90613566565b60405180910390fd5b60008160040160009054906101000a900473ffffffffffffffffffffffffffffffffffffffff1690508073ffffffffffffffffffffffffffffffffffffffff166108fc349081150290604051600060405180830381858888f19350505050158015610c05573d6000803e3d6000fd5b5060016000806101000a81548160ff0219169083151502179055506000600260008460040160009054906101000a900473ffffffffffffffffffffffffffffffffffffffff1673ffffffffffffffffffffffffffffffffffffffff1673ffffffffffffffffffffffffffffffffffffffff1681526020019081526020016000209050806002018481548110610c9d57610c9c6132be565b5b9060005260206000200160009055806001016000815480929190610cc090613586565b9190505550610ccf85336104b4565b60008060006101000a81548160ff02191690831515021790555060008360080160006101000a81548160ff0219169083151502179055506001600954610d1591906132ed565b6009819055505050505050565b60076020528060005260406000206000915090505481565b60095481565b600360003373ffffffffffffffffffffffffffffffffffffffff1673ffffffffffffffffffffffffffffffffffffffff16815260200190815260200160002060030160009054906101000a900460ff1615610dd0576040517f08c379a0000000000000000000000000000000000000000000000000000000008152600401610dc7906135fb565b60405180910390fd5b604051806080016040528084815260200183815260200182815260200160011515815250600360003373ffffffffffffffffffffffffffffffffffffffff1673ffffffffffffffffffffffffffffffffffffffff1681526020019081526020016000206000820151816000019081610e4891906137c7565b50602082015181600101556040820151816002019081610e6891906137c7565b5060608201518160030160006101000a81548160ff02191690831515021790555090505082600560003373ffffffffffffffffffffffffffffffffffffffff1673ffffffffffffffffffffffffffffffffffffffff1681526020019081526020016000209081610ed891906137c7565b50505050565b60606000600654905060005b600654811015610f4757838051906020012060016000838152602001908152602001600020600101604051610f1f9190613132565b604051809103902003610f3457809150610f47565b8080610f3f90613178565b915050610eea565b506006548110610f8c576040517f08c379a0000000000000000000000000000000000000000000000000000000008152600401610f839061320c565b60405180910390fd5b60006001600083815260200190815260200160002090506000816006015467ffffffffffffffff811115610fc357610fc26124cb565b5b604051908082528060200260200182016040528015610ff15781602001602082028036833780820191505090505b50905060005b82600601548110156110aa57826005016000828152602001908152602001600020600085815260200190815260200160002060009054906101000a900473ffffffffffffffffffffffffffffffffffffffff1682828151811061105d5761105c6132be565b5b602002602001019073ffffffffffffffffffffffffffffffffffffffff16908173ffffffffffffffffffffffffffffffffffffffff168152505080806110a290613178565b915050610ff7565b50809350505050919050565b6000600260008373ffffffffffffffffffffffffffffffffffffffff1673ffffffffffffffffffffffffffffffffffffffff16815260200190815260200160002090506000600160006006548152602001908152602001600020905060065481600001819055508581600101908161112e91906137c7565b508481600201908161114091906137c7565b50838160030181905550828160040160006101000a81548173ffffffffffffffffffffffffffffffffffffffff021916908373ffffffffffffffffffffffffffffffffffffffff16021790555060018160060181905550828160050160008081526020019081526020016000206000600654815260200190815260200160002060006101000a81548173ffffffffffffffffffffffffffffffffffffffff021916908373ffffffffffffffffffffffffffffffffffffffff1602179055506006600081548092919061121190613178565b919050555081600101600081548092919061122b90613178565b919050555081600301600081548092919061124590613178565b91905055508160020181600001549080600181540180825580915050600190039060005260206000200160009091909190915055600460008473ffffffffffffffffffffffffffffffffffffffff1673ffffffffffffffffffffffffffffffffffffffff16815260200190815260200160002081600001549080600181540180825580915050600190039060005260206000200160009091909190915055505050505050565b600360205280600052604060002060009150905080600001805461130e9061305e565b80601f016020809104026020016040519081016040528092919081815260200182805461133a9061305e565b80156113875780601f1061135c57610100808354040283529160200191611387565b820191906000526020600020905b81548152906001019060200180831161136a57829003601f168201915b5050505050908060010154908060020180546113a29061305e565b80601f01602080910402602001604051908101604052809291908181526020018280546113ce9061305e565b801561141b5780601f106113f05761010080835404028352916020019161141b565b820191906000526020600020905b8154815290600101906020018083116113fe57829003601f168201915b5050505050908060030160009054906101000a900460ff16905084565b600360003373ffffffffffffffffffffffffffffffffffffffff1673ffffffffffffffffffffffffffffffffffffffff16815260200190815260200160002060030160009054906101000a900460ff166114c7576040517f08c379a00000000000000000000000000000000000000000000000000000000081526004016114be9061339c565b60405180910390fd5b6000600260003373ffffffffffffffffffffffffffffffffffffffff1673ffffffffffffffffffffffffffffffffffffffff16815260200190815260200160002090506000600654905060005b600654811015611571578480519060200120600160008381526020019081526020016000206001016040516115499190613132565b60405180910390200361155e57809150611571565b808061156990613178565b915050611514565b5060065481106115b6576040517f08c379a00000000000000000000000000000000000000000000000000000000081526004016115ad9061320c565b60405180910390fd5b60006001600083815260200190815260200160002090503373ffffffffffffffffffffffffffffffffffffffff168160040160009054906101000a900473ffffffffffffffffffffffffffffffffffffffff1673ffffffffffffffffffffffffffffffffffffffff161461165f576040517f08c379a00000000000000000000000000000000000000000000000000000000081526004016116569061390b565b60405180910390fd5b83816007018190555060018160080160006101000a81548160ff021916908315150217905550816007600060095481526020019081526020016000208190555060016009546116ae919061392b565b6009819055508060080160009054906101000a900460ff161580156116d35750600084115b156116ff5783816007018190555060018160080160006101000a81548160ff0219169083151502179055505b5050505050565b60026020528060005260406000206000915090508060000160009054906101000a900473ffffffffffffffffffffffffffffffffffffffff16908060010154908060030154905083565b60016020528060005260406000206000915090508060000154908060010180546117799061305e565b80601f01602080910402602001604051908101604052809291908181526020018280546117a59061305e565b80156117f25780601f106117c7576101008083540402835291602001916117f2565b820191906000526020600020905b8154815290600101906020018083116117d557829003601f168201915b5050505050908060020180546118079061305e565b80601f01602080910402602001604051908101604052809291908181526020018280546118339061305e565b80156118805780601f1061185557610100808354040283529160200191611880565b820191906000526020600020905b81548152906001019060200180831161186357829003601f168201915b5050505050908060030154908060040160009054906101000a900473ffffffffffffffffffffffffffffffffffffffff16908060060154908060070154908060080160009054906101000a900460ff16905088565b6060600060065467ffffffffffffffff8111156118f5576118f46124cb565b5b6040519080825280602002602001820160405280156119235781602001602082028036833780820191505090505b5090506000805b6006548110156119a557600115156001600083815260200190815260200160002060080160009054906101000a900460ff161515036119925780838381518110611977576119766132be565b5b602002602001018181525050818061198e90613178565b9250505b808061199d90613178565b91505061192a565b5060008167ffffffffffffffff8111156119c2576119c16124cb565b5b6040519080825280602002602001820160405280156119f05781602001602082028036833780820191505090505b50905060005b82811015611a4b57838181518110611a1157611a106132be565b5b6020026020010151828281518110611a2c57611a2b6132be565b5b6020026020010181815250508080611a4390613178565b9150506119f6565b5080935050505090565b606060006060600360008573ffffffffffffffffffffffffffffffffffffffff1673ffffffffffffffffffffffffffffffffffffffff16815260200190815260200160002060030160009054906101000a900460ff16611aea576040517f08c379a0000000000000000000000000000000000000000000000000000000008152600401611ae19061339c565b60405180910390fd5b600360008573ffffffffffffffffffffffffffffffffffffffff1673ffffffffffffffffffffffffffffffffffffffff168152602001908152602001600020600001600360008673ffffffffffffffffffffffffffffffffffffffff1673ffffffffffffffffffffffffffffffffffffffff16815260200190815260200160002060010154600360008773ffffffffffffffffffffffffffffffffffffffff1673ffffffffffffffffffffffffffffffffffffffff168152602001908152602001600020600201828054611bbd9061305e565b80601f0160208091040260200160405190810160405280929190818152602001828054611be99061305e565b8015611c365780601f10611c0b57610100808354040283529160200191611c36565b820191906000526020600020905b815481529060010190602001808311611c1957829003601f168201915b50505050509250808054611c499061305e565b80601f0160208091040260200160405190810160405280929190818152602001828054611c759061305e565b8015611cc25780601f10611c9757610100808354040283529160200191611cc2565b820191906000526020600020905b815481529060010190602001808311611ca557829003601f168201915b505050505090509250925092509193909250565b6060600060095467ffffffffffffffff811115611cf657611cf56124cb565b5b604051908082528060200260200182016040528015611d2f57816020015b611d1c6123ed565b815260200190600190039081611d145790505b5090506000805b60095481101561205c576040518060a0016040528060016000600760008681526020019081526020016000205481526020019081526020016000206002018054611d7f9061305e565b80601f0160208091040260200160405190810160405280929190818152602001828054611dab9061305e565b8015611df85780601f10611dcd57610100808354040283529160200191611df8565b820191906000526020600020905b815481529060010190602001808311611ddb57829003601f168201915b50505050508152602001600160006007600086815260200190815260200160002054815260200190815260200160002060030154815260200160016000600760008681526020019081526020016000205481526020019081526020016000206001018054611e659061305e565b80601f0160208091040260200160405190810160405280929190818152602001828054611e919061305e565b8015611ede5780601f10611eb357610100808354040283529160200191611ede565b820191906000526020600020905b815481529060010190602001808311611ec157829003601f168201915b5050505050815260200160056000600160006007600088815260200190815260200160002054815260200190815260200160002060040160009054906101000a900473ffffffffffffffffffffffffffffffffffffffff1673ffffffffffffffffffffffffffffffffffffffff1673ffffffffffffffffffffffffffffffffffffffff1681526020019081526020016000208054611f7b9061305e565b80601f0160208091040260200160405190810160405280929190818152602001828054611fa79061305e565b8015611ff45780601f10611fc957610100808354040283529160200191611ff4565b820191906000526020600020905b815481529060010190602001808311611fd757829003601f168201915b5050505050815260200160016000600760008681526020019081526020016000205481526020019081526020016000206007015481525083828151811061203e5761203d6132be565b5b6020026020010181905250808061205490613178565b915050611d36565b50819250505090565b60606000600260008473ffffffffffffffffffffffffffffffffffffffff1673ffffffffffffffffffffffffffffffffffffffff168152602001908152602001600020905060008160010154905060008260030154905060008267ffffffffffffffff8111156120d8576120d76124cb565b5b60405190808252806020026020018201604052801561211157816020015b6120fe61241c565b8152602001906001900390816120f65790505b5090506000805b838110156123ae576000866002018281548110612138576121376132be565b5b906000526020600020015490508873ffffffffffffffffffffffffffffffffffffffff166001600083815260200190815260200160002060040160009054906101000a900473ffffffffffffffffffffffffffffffffffffffff1673ffffffffffffffffffffffffffffffffffffffff160361239a576040518060c00160405280600160008481526020019081526020016000206000015481526020016001600084815260200190815260200160002060010180546121f69061305e565b80601f01602080910402602001604051908101604052809291908181526020018280546122229061305e565b801561226f5780601f106122445761010080835404028352916020019161226f565b820191906000526020600020905b81548152906001019060200180831161225257829003601f168201915b505050505081526020018a73ffffffffffffffffffffffffffffffffffffffff1681526020016001600084815260200190815260200160002060020180546122b69061305e565b80601f01602080910402602001604051908101604052809291908181526020018280546122e29061305e565b801561232f5780601f106123045761010080835404028352916020019161232f565b820191906000526020600020905b81548152906001019060200180831161231257829003601f168201915b5050505050815260200160016000848152602001908152602001600020600301548152602001600160008481526020019081526020016000206006015481525084848061237b90613178565b95508151811061238e5761238d6132be565b5b60200260200101819052505b5080806123a690613178565b915050612118565b508195505050505050919050565b600460205281600052604060002081815481106123d857600080fd5b90600052602060002001600091509150505481565b6040518060a0016040528060608152602001600081526020016060815260200160608152602001600081525090565b6040518060c001604052806000815260200160608152602001600073ffffffffffffffffffffffffffffffffffffffff1681526020016060815260200160008152602001600081525090565b6000819050919050565b61247b81612468565b82525050565b60006020820190506124966000830184612472565b92915050565b6000604051905090565b600080fd5b600080fd5b600080fd5b600080fd5b6000601f19601f8301169050919050565b7f4e487b7100000000000000000000000000000000000000000000000000000000600052604160045260246000fd5b612503826124ba565b810181811067ffffffffffffffff82111715612522576125216124cb565b5b80604052505050565b600061253561249c565b905061254182826124fa565b919050565b600067ffffffffffffffff821115612561576125606124cb565b5b61256a826124ba565b9050602081019050919050565b82818337600083830152505050565b600061259961259484612546565b61252b565b9050828152602081018484840111156125b5576125b46124b5565b5b6125c0848285612577565b509392505050565b600082601f8301126125dd576125dc6124b0565b5b81356125ed848260208601612586565b91505092915050565b600073ffffffffffffffffffffffffffffffffffffffff82169050919050565b6000612621826125f6565b9050919050565b61263181612616565b811461263c57600080fd5b50565b60008135905061264e81612628565b92915050565b6000806040838503121561266b5761266a6124a6565b5b600083013567ffffffffffffffff811115612689576126886124ab565b5b612695858286016125c8565b92505060206126a68582860161263f565b9150509250929050565b6000602082840312156126c6576126c56124a6565b5b600082013567ffffffffffffffff8111156126e4576126e36124ab565b5b6126f0848285016125c8565b91505092915050565b61270281612468565b811461270d57600080fd5b50565b60008135905061271f816126f9565b92915050565b60006020828403121561273b5761273a6124a6565b5b600061274984828501612710565b91505092915050565b60008060006060848603121561276b5761276a6124a6565b5b600084013567ffffffffffffffff811115612789576127886124ab565b5b612795868287016125c8565b93505060206127a686828701612710565b925050604084013567ffffffffffffffff8111156127c7576127c66124ab565b5b6127d3868287016125c8565b9150509250925092565b600081519050919050565b600082825260208201905092915050565b6000819050602082019050919050565b61281281612616565b82525050565b60006128248383612809565b60208301905092915050565b6000602082019050919050565b6000612848826127dd565b61285281856127e8565b935061285d836127f9565b8060005b8381101561288e5781516128758882612818565b975061288083612830565b925050600181019050612861565b5085935050505092915050565b600060208201905081810360008301526128b5818461283d565b905092915050565b600080600080608085870312156128d7576128d66124a6565b5b600085013567ffffffffffffffff8111156128f5576128f46124ab565b5b612901878288016125c8565b945050602085013567ffffffffffffffff811115612922576129216124ab565b5b61292e878288016125c8565b935050604061293f87828801612710565b92505060606129508782880161263f565b91505092959194509250565b600060208284031215612972576129716124a6565b5b60006129808482850161263f565b91505092915050565b600081519050919050565b600082825260208201905092915050565b60005b838110156129c35780820151818401526020810190506129a8565b60008484015250505050565b60006129da82612989565b6129e48185612994565b93506129f48185602086016129a5565b6129fd816124ba565b840191505092915050565b60008115159050919050565b612a1d81612a08565b82525050565b60006080820190508181036000830152612a3d81876129cf565b9050612a4c6020830186612472565b8181036040830152612a5e81856129cf565b9050612a6d6060830184612a14565b95945050505050565b60008060408385031215612a8d57612a8c6124a6565b5b600083013567ffffffffffffffff811115612aab57612aaa6124ab565b5b612ab7858286016125c8565b9250506020612ac885828601612710565b9150509250929050565b612adb81612616565b82525050565b6000606082019050612af66000830186612ad2565b612b036020830185612472565b612b106040830184612472565b949350505050565b600061010082019050612b2e600083018b612472565b8181036020830152612b40818a6129cf565b90508181036040830152612b5481896129cf565b9050612b636060830188612472565b612b706080830187612ad2565b612b7d60a0830186612472565b612b8a60c0830185612472565b612b9760e0830184612a14565b9998505050505050505050565b600081519050919050565b600082825260208201905092915050565b6000819050602082019050919050565b612bd981612468565b82525050565b6000612beb8383612bd0565b60208301905092915050565b6000602082019050919050565b6000612c0f82612ba4565b612c198185612baf565b9350612c2483612bc0565b8060005b83811015612c55578151612c3c8882612bdf565b9750612c4783612bf7565b925050600181019050612c28565b5085935050505092915050565b60006020820190508181036000830152612c7c8184612c04565b905092915050565b60006060820190508181036000830152612c9e81866129cf565b9050612cad6020830185612472565b8181036040830152612cbf81846129cf565b9050949350505050565b600081519050919050565b600082825260208201905092915050565b6000819050602082019050919050565b600082825260208201905092915050565b6000612d1182612989565b612d1b8185612cf5565b9350612d2b8185602086016129a5565b612d34816124ba565b840191505092915050565b600060a0830160008301518482036000860152612d5c8282612d06565b9150506020830151612d716020860182612bd0565b5060408301518482036040860152612d898282612d06565b91505060608301518482036060860152612da38282612d06565b9150506080830151612db86080860182612bd0565b508091505092915050565b6000612dcf8383612d3f565b905092915050565b6000602082019050919050565b6000612def82612cc9565b612df98185612cd4565b935083602082028501612e0b85612ce5565b8060005b85811015612e475784840389528151612e288582612dc3565b9450612e3383612dd7565b925060208a01995050600181019050612e0f565b50829750879550505050505092915050565b60006020820190508181036000830152612e738184612de4565b905092915050565b600081519050919050565b600082825260208201905092915050565b6000819050602082019050919050565b600060c083016000830151612ebf6000860182612bd0565b5060208301518482036020860152612ed78282612d06565b9150506040830151612eec6040860182612809565b5060608301518482036060860152612f048282612d06565b9150506080830151612f196080860182612bd0565b5060a0830151612f2c60a0860182612bd0565b508091505092915050565b6000612f438383612ea7565b905092915050565b6000602082019050919050565b6000612f6382612e7b565b612f6d8185612e86565b935083602082028501612f7f85612e97565b8060005b85811015612fbb5784840389528151612f9c8582612f37565b9450612fa783612f4b565b925060208a01995050600181019050612f83565b50829750879550505050505092915050565b60006020820190508181036000830152612fe78184612f58565b905092915050565b60008060408385031215613006576130056124a6565b5b60006130148582860161263f565b925050602061302585828601612710565b9150509250929050565b7f4e487b7100000000000000000000000000000000000000000000000000000000600052602260045260246000fd5b6000600282049050600182168061307657607f821691505b6020821081036130895761308861302f565b5b50919050565b600081905092915050565b60008190508160005260206000209050919050565b600081546130bc8161305e565b6130c6818661308f565b945060018216600081146130e157600181146130f657613129565b60ff1983168652811515820286019350613129565b6130ff8561309a565b60005b8381101561312157815481890152600182019150602081019050613102565b838801955050505b50505092915050565b600061313e82846130af565b915081905092915050565b7f4e487b7100000000000000000000000000000000000000000000000000000000600052601160045260246000fd5b600061318382612468565b91507fffffffffffffffffffffffffffffffffffffffffffffffffffffffffffffffff82036131b5576131b4613149565b5b600182019050919050565b7f496e76616c6964204e756d62657220706c617465000000000000000000000000600082015250565b60006131f6601483612994565b9150613201826131c0565b602082019050919050565b60006020820190508181036000830152613225816131e9565b9050919050565b7f4f6e6c79207468652063757272656e74206f776e65722063616e207472616e7360008201527f666572207468652076656869636c650000000000000000000000000000000000602082015250565b6000613288602f83612994565b91506132938261322c565b604082019050919050565b600060208201905081810360008301526132b78161327b565b9050919050565b7f4e487b7100000000000000000000000000000000000000000000000000000000600052603260045260246000fd5b60006132f882612468565b915061330383612468565b925082820390508181111561331b5761331a613149565b5b92915050565b7f4e487b7100000000000000000000000000000000000000000000000000000000600052603160045260246000fd5b7f5573657220646f6573206e6f7420657869737400000000000000000000000000600082015250565b6000613386601383612994565b915061339182613350565b602082019050919050565b600060208201905081810360008301526133b581613379565b9050919050565b7f56656869636c65206e6f7420666f722073616c65000000000000000000000000600082015250565b60006133f2601483612994565b91506133fd826133bc565b602082019050919050565b60006020820190508181036000830152613421816133e5565b9050919050565b7f56656869636c6520646f6573206e6f7420657869737400000000000000000000600082015250565b600061345e601683612994565b915061346982613428565b602082019050919050565b6000602082019050818103600083015261348d81613451565b9050919050565b7f4e487b7100000000000000000000000000000000000000000000000000000000600052601260045260246000fd5b60006134ce82612468565b91506134d983612468565b9250826134e9576134e8613494565b5b828204905092915050565b7f496e73756666696369656e742066756e647320746f206275792074686520766560008201527f6869636c65000000000000000000000000000000000000000000000000000000602082015250565b6000613550602583612994565b915061355b826134f4565b604082019050919050565b6000602082019050818103600083015261357f81613543565b9050919050565b600061359182612468565b9150600082036135a4576135a3613149565b5b600182039050919050565b7f5573657220616c72656164792065786973747300000000000000000000000000600082015250565b60006135e5601383612994565b91506135f0826135af565b602082019050919050565b60006020820190508181036000830152613614816135d8565b9050919050565b60008190508160005260206000209050919050565b60006020601f8301049050919050565b600082821b905092915050565b60006008830261367d7fffffffffffffffffffffffffffffffffffffffffffffffffffffffffffffffff82613640565b6136878683613640565b95508019841693508086168417925050509392505050565b6000819050919050565b60006136c46136bf6136ba84612468565b61369f565b612468565b9050919050565b6000819050919050565b6136de836136a9565b6136f26136ea826136cb565b84845461364d565b825550505050565b600090565b6137076136fa565b6137128184846136d5565b505050565b5b818110156137365761372b6000826136ff565b600181019050613718565b5050565b601f82111561377b5761374c8161361b565b61375584613630565b81016020851015613764578190505b61377861377085613630565b830182613717565b50505b505050565b600082821c905092915050565b600061379e60001984600802613780565b1980831691505092915050565b60006137b7838361378d565b9150826002028217905092915050565b6137d082612989565b67ffffffffffffffff8111156137e9576137e86124cb565b5b6137f3825461305e565b6137fe82828561373a565b600060209050601f831160018114613831576000841561381f578287015190505b61382985826137ab565b865550613891565b601f19841661383f8661361b565b60005b8281101561386757848901518255600182019150602085019450602081019050613842565b868310156138845784890151613880601f89168261378d565b8355505b6001600288020188555050505b505050505050565b7f4f6e6c79207468652063757272656e74206f776e65722063616e20736574207460008201527f6865207072696365206f66207468652076656869636c65000000000000000000602082015250565b60006138f5603783612994565b915061390082613899565b604082019050919050565b60006020820190508181036000830152613924816138e8565b9050919050565b600061393682612468565b915061394183612468565b925082820190508082111561395957613958613149565b5b9291505056fea26469706673582212207c19dafa3abbb916a17ae083575f65b6e23b4b7e6fcc42bab6aef419c1ee9b5464736f6c63430008130033",
  "linkReferences": {},
  "deployedLinkReferences": {}
}