{
  "_format": "hh-sol-artifact-1",
  "contractName": "VehicleManagement",
  "sourceName": "contracts/VehicleManagement.sol",
  "abi": [
    {
      "inputs": [],
      "stateMutability": "nonpayable",
      "type": "constructor"
    },
    {
      "inputs": [
        {
          "internalType": "string",
          "name": "_numberPlate",
          "type": "string"
        },
        {
          "internalType": "string",
          "name": "_carName",
          "type": "string"
        },
        {
          "internalType": "uint256",
          "name": "_year",
          "type": "uint256"
        },
        {
          "internalType": "address",
          "name": "_address",
          "type": "address"
        }
      ],
      "name": "addVehicle",
      "outputs": [],
      "stateMutability": "nonpayable",
      "type": "function"
    },
    {
      "inputs": [
        {
          "internalType": "string",
          "name": "_numberPlate",
          "type": "string"
        }
      ],
      "name": "buyVehicle",
      "outputs": [],
      "stateMutability": "payable",
      "type": "function"
    },
    {
      "inputs": [],
      "name": "counter",
      "outputs": [
        {
          "internalType": "uint256",
          "name": "",
          "type": "uint256"
        }
      ],
      "stateMutability": "view",
      "type": "function"
    },
    {
      "inputs": [],
      "name": "displayVehiclesforSale",
      "outputs": [
        {
          "internalType": "uint256[]",
          "name": "",
          "type": "uint256[]"
        }
      ],
      "stateMutability": "view",
      "type": "function"
    },
    {
      "inputs": [],
      "name": "getBalance",
      "outputs": [
        {
          "internalType": "uint256",
          "name": "",
          "type": "uint256"
        }
      ],
      "stateMutability": "view",
      "type": "function"
    },
    {
      "inputs": [
        {
          "internalType": "address",
          "name": "_user",
          "type": "address"
        }
      ],
      "name": "getUserDetails",
      "outputs": [
        {
          "internalType": "string",
          "name": "",
          "type": "string"
        },
        {
          "internalType": "uint256",
          "name": "",
          "type": "uint256"
        },
        {
          "internalType": "string",
          "name": "",
          "type": "string"
        }
      ],
      "stateMutability": "view",
      "type": "function"
    },
    {
      "inputs": [
        {
          "internalType": "string",
          "name": "_numberPlate",
          "type": "string"
        }
      ],
      "name": "getVehicleOwnerHistory",
      "outputs": [
        {
          "internalType": "address[]",
          "name": "",
          "type": "address[]"
        }
      ],
      "stateMutability": "view",
      "type": "function"
    },
    {
      "inputs": [],
      "name": "getVehiclesWithPriceSet",
      "outputs": [
        {
          "components": [
            {
              "internalType": "string",
              "name": "carName",
              "type": "string"
            },
            {
              "internalType": "uint256",
              "name": "year",
              "type": "uint256"
            },
            {
              "internalType": "string",
              "name": "numberPlate",
              "type": "string"
            },
            {
              "internalType": "string",
              "name": "ownerName",
              "type": "string"
            },
            {
              "internalType": "uint256",
              "name": "price",
              "type": "uint256"
            }
          ],
          "internalType": "struct VehicleManagement.VehicleDetails[]",
          "name": "",
          "type": "tuple[]"
        }
      ],
      "stateMutability": "view",
      "type": "function"
    },
    {
      "inputs": [
        {
          "internalType": "string",
          "name": "name",
          "type": "string"
        },
        {
          "internalType": "uint256",
          "name": "age",
          "type": "uint256"
        },
        {
          "internalType": "string",
          "name": "email",
          "type": "string"
        }
      ],
      "name": "register",
      "outputs": [],
      "stateMutability": "nonpayable",
      "type": "function"
    },
    {
      "inputs": [
        {
          "internalType": "string",
          "name": "_numberPlate",
          "type": "string"
        },
        {
          "internalType": "uint256",
          "name": "_price",
          "type": "uint256"
        }
      ],
      "name": "setVehiclePrice",
      "outputs": [],
      "stateMutability": "nonpayable",
      "type": "function"
    },
    {
      "inputs": [],
      "name": "totalVehicles",
      "outputs": [
        {
          "internalType": "uint256",
          "name": "",
          "type": "uint256"
        }
      ],
      "stateMutability": "view",
      "type": "function"
    },
    {
      "inputs": [
        {
          "internalType": "string",
          "name": "_numberPlate",
          "type": "string"
        },
        {
          "internalType": "address",
          "name": "_newOwner",
          "type": "address"
        }
      ],
      "name": "transferVehicle",
      "outputs": [],
      "stateMutability": "nonpayable",
      "type": "function"
    },
    {
      "inputs": [
        {
          "internalType": "address",
          "name": "",
          "type": "address"
        }
      ],
      "name": "userdetails",
      "outputs": [
        {
          "internalType": "string",
          "name": "name",
          "type": "string"
        },
        {
          "internalType": "uint256",
          "name": "age",
          "type": "uint256"
        },
        {
          "internalType": "string",
          "name": "email",
          "type": "string"
        },
        {
          "internalType": "bool",
          "name": "exists",
          "type": "bool"
        }
      ],
      "stateMutability": "view",
      "type": "function"
    },
    {
      "inputs": [
        {
          "internalType": "address",
          "name": "",
          "type": "address"
        }
      ],
      "name": "users",
      "outputs": [
        {
          "internalType": "address",
          "name": "userAdd",
          "type": "address"
        },
        {
          "internalType": "uint256",
          "name": "currentVehicles",
          "type": "uint256"
        }
      ],
      "stateMutability": "view",
      "type": "function"
    },
    {
      "inputs": [
        {
          "internalType": "address",
          "name": "",
          "type": "address"
        },
        {
          "internalType": "uint256",
          "name": "",
          "type": "uint256"
        }
      ],
      "name": "vehicleOwned",
      "outputs": [
        {
          "internalType": "uint256",
          "name": "",
          "type": "uint256"
        }
      ],
      "stateMutability": "view",
      "type": "function"
    },
    {
      "inputs": [
        {
          "internalType": "uint256",
          "name": "",
          "type": "uint256"
        }
      ],
      "name": "vehicles",
      "outputs": [
        {
          "internalType": "uint256",
          "name": "id",
          "type": "uint256"
        },
        {
          "internalType": "string",
          "name": "numberPlate",
          "type": "string"
        },
        {
          "internalType": "string",
          "name": "carName",
          "type": "string"
        },
        {
          "internalType": "uint256",
          "name": "year",
          "type": "uint256"
        },
        {
          "internalType": "address",
          "name": "owner",
          "type": "address"
        },
        {
          "internalType": "uint256",
          "name": "ownerHistoryCount",
          "type": "uint256"
        },
        {
          "internalType": "uint256",
          "name": "price",
          "type": "uint256"
        },
        {
          "internalType": "bool",
          "name": "priceSet",
          "type": "bool"
        }
      ],
      "stateMutability": "view",
      "type": "function"
    },
    {
      "inputs": [
        {
          "internalType": "uint256",
          "name": "",
          "type": "uint256"
        }
      ],
      "name": "vehiclesWithPriceSet",
      "outputs": [
        {
          "internalType": "uint256",
          "name": "",
          "type": "uint256"
        }
      ],
      "stateMutability": "view",
      "type": "function"
    },
    {
      "stateMutability": "payable",
      "type": "receive"
    }
  ],
  "bytecode": "0x608060405260008060006101000a81548160ff02191690831515021790555060006009553480156200003057600080fd5b50620000c56040518060400160405280600a81526020017f4d483034414130303031000000000000000000000000000000000000000000008152506040518060400160405280601681526020017f4d617275746920537769667420447a69726520564449000000000000000000008152506107de7370997970c51812dc3a010c7d01b50e0d17dc79c86200028760201b60201c565b620001596040518060400160405280600a81526020017f4d483134414230303031000000000000000000000000000000000000000000008152506040518060400160405280601c81526020017f536b6f646120526170696420312e352054444920416d626974696f6e000000008152506107de7370997970c51812dc3a010c7d01b50e0d17dc79c86200028760201b60201c565b620001ed6040518060400160405280600a81526020017f4d483331414330303032000000000000000000000000000000000000000000008152506040518060400160405280601881526020017f486f6e6461204369747920323031372d323032302045586900000000000000008152506107d67370997970c51812dc3a010c7d01b50e0d17dc79c86200028760201b60201c565b620002816040518060400160405280600a81526020017f544e3034414430303033000000000000000000000000000000000000000000008152506040518060400160405280601981526020017f4879756e646169206932302053706f72747a2044696573656c000000000000008152506107da7370997970c51812dc3a010c7d01b50e0d17dc79c86200028760201b60201c565b62000858565b6000600260008373ffffffffffffffffffffffffffffffffffffffff1673ffffffffffffffffffffffffffffffffffffffff168152602001908152602001600020905060006001600060065481526020019081526020016000209050600654816000018190555085816001019081620003019190620006f5565b5084816002019081620003159190620006f5565b50838160030181905550828160040160006101000a81548173ffffffffffffffffffffffffffffffffffffffff021916908373ffffffffffffffffffffffffffffffffffffffff16021790555060018160060181905550828160050160008081526020019081526020016000206000600654815260200190815260200160002060006101000a81548173ffffffffffffffffffffffffffffffffffffffff021916908373ffffffffffffffffffffffffffffffffffffffff16021790555060066000815480929190620003e8906200080b565b919050555081600101600081548092919062000404906200080b565b9190505550600460008473ffffffffffffffffffffffffffffffffffffffff1673ffffffffffffffffffffffffffffffffffffffff16815260200190815260200160002081600001549080600181540180825580915050600190039060005260206000200160009091909190915055505050505050565b600081519050919050565b7f4e487b7100000000000000000000000000000000000000000000000000000000600052604160045260246000fd5b7f4e487b7100000000000000000000000000000000000000000000000000000000600052602260045260246000fd5b60006002820490506001821680620004fd57607f821691505b602082108103620005135762000512620004b5565b5b50919050565b60008190508160005260206000209050919050565b60006020601f8301049050919050565b600082821b905092915050565b6000600883026200057d7fffffffffffffffffffffffffffffffffffffffffffffffffffffffffffffffff826200053e565b6200058986836200053e565b95508019841693508086168417925050509392505050565b6000819050919050565b6000819050919050565b6000620005d6620005d0620005ca84620005a1565b620005ab565b620005a1565b9050919050565b6000819050919050565b620005f283620005b5565b6200060a6200060182620005dd565b8484546200054b565b825550505050565b600090565b6200062162000612565b6200062e818484620005e7565b505050565b5b8181101562000656576200064a60008262000617565b60018101905062000634565b5050565b601f821115620006a5576200066f8162000519565b6200067a846200052e565b810160208510156200068a578190505b620006a262000699856200052e565b83018262000633565b50505b505050565b600082821c905092915050565b6000620006ca60001984600802620006aa565b1980831691505092915050565b6000620006e58383620006b7565b9150826002028217905092915050565b62000700826200047b565b67ffffffffffffffff8111156200071c576200071b62000486565b5b620007288254620004e4565b620007358282856200065a565b600060209050601f8311600181146200076d576000841562000758578287015190505b620007648582620006d7565b865550620007d4565b601f1984166200077d8662000519565b60005b82811015620007a75784890151825560018201915060208501945060208101905062000780565b86831015620007c75784890151620007c3601f891682620006b7565b8355505b6001600288020188555050505b505050505050565b7f4e487b7100000000000000000000000000000000000000000000000000000000600052601160045260246000fd5b60006200081882620005a1565b91507fffffffffffffffffffffffffffffffffffffffffffffffffffffffffffffffff82036200084d576200084c620007dc565b5b600182019050919050565b61335a80620008686000396000f3fe6080604052600436106101025760003560e01c80637865375c11610095578063b8ba95fa11610064578063b8ba95fa14610347578063c35020751461038b578063cc3d967b146103b6578063dc3b0b03146103f5578063ea9d99011461042057610109565b80637865375c146102775780637d02edad146102a057806391ea5dd2146102e0578063a87430ba1461030957610109565b806337f04e7f116100d157806337f04e7f146101a957806361bc221a146101e6578063637a08321461021157806376c12c511461023a57610109565b806302152d021461010e57806312065fe01461013957806322b35cc81461016457806336670cba1461018d57610109565b3661010957005b600080fd5b34801561011a57600080fd5b5061012361045d565b6040516101309190611fc8565b60405180910390f35b34801561014557600080fd5b5061014e610463565b60405161015b9190611fc8565b60405180910390f35b34801561017057600080fd5b5061018b6004803603810190610186919061219b565b61046b565b005b6101a760048036038101906101a291906121f7565b610872565b005b3480156101b557600080fd5b506101d060048036038101906101cb919061226c565b610c5b565b6040516101dd9190611fc8565b60405180910390f35b3480156101f257600080fd5b506101fb610c73565b6040516102089190611fc8565b60405180910390f35b34801561021d57600080fd5b5061023860048036038101906102339190612299565b610c79565b005b34801561024657600080fd5b50610261600480360381019061025c91906121f7565b610e17565b60405161026e91906123e2565b60405180910390f35b34801561028357600080fd5b5061029e60048036038101906102999190612404565b610fef565b005b3480156102ac57600080fd5b506102c760048036038101906102c291906124a3565b6111db565b6040516102d7949392919061256a565b60405180910390f35b3480156102ec57600080fd5b50610307600480360381019061030291906125bd565b611328565b005b34801561031557600080fd5b50610330600480360381019061032b91906124a3565b6115f6565b60405161033e929190612628565b60405180910390f35b34801561035357600080fd5b5061036e6004803603810190610369919061226c565b61163a565b604051610382989796959493929190612651565b60405180910390f35b34801561039757600080fd5b506103a06117bf565b6040516103ad919061279b565b60405180910390f35b3480156103c257600080fd5b506103dd60048036038101906103d891906124a3565b61193f565b6040516103ec939291906127bd565b60405180910390f35b34801561040157600080fd5b5061040a611bc0565b6040516104179190612992565b60405180910390f35b34801561042c57600080fd5b50610447600480360381019061044291906129b4565b611f4f565b6040516104549190611fc8565b60405180910390f35b60065481565b600047905090565b6000600654905060005b6006548110156104d2578380519060200120600160008381526020019081526020016000206001016040516104aa9190612af7565b6040518091039020036104bf578091506104d2565b80806104ca90612b3d565b915050610475565b506006548110610517576040517f08c379a000000000000000000000000000000000000000000000000000000000815260040161050e90612bd1565b60405180910390fd5b6000600260003373ffffffffffffffffffffffffffffffffffffffff1673ffffffffffffffffffffffffffffffffffffffff168152602001908152602001600020905060006001600084815260200190815260200160002090503373ffffffffffffffffffffffffffffffffffffffff168160040160009054906101000a900473ffffffffffffffffffffffffffffffffffffffff1673ffffffffffffffffffffffffffffffffffffffff1614806105e057506001151560008054906101000a900460ff161515145b61061f576040517f08c379a000000000000000000000000000000000000000000000000000000000815260040161061690612c63565b60405180910390fd5b8381600501600083600601548152602001908152602001600020600085815260200190815260200160002060006101000a81548173ffffffffffffffffffffffffffffffffffffffff021916908373ffffffffffffffffffffffffffffffffffffffff16021790555080600601600081548092919061069d90612b3d565b91905055508160010160008154809291906106b790612b3d565b91905055506000600460003373ffffffffffffffffffffffffffffffffffffffff1673ffffffffffffffffffffffffffffffffffffffff168152602001908152602001600020905060005b81805490508110156107c0578482828154811061072257610721612c83565b5b9060005260206000200154036107ad5781600183805490506107449190612cb2565b8154811061075557610754612c83565b5b906000526020600020015482828154811061077357610772612c83565b5b90600052602060002001819055508180548061079257610791612ce6565b5b600190038181906000526020600020016000905590556107c0565b80806107b890612b3d565b915050610702565b50600460008673ffffffffffffffffffffffffffffffffffffffff1673ffffffffffffffffffffffffffffffffffffffff168152602001908152602001600020849080600181540180825580915050600190039060005260206000200160009091909190915055848260040160006101000a81548173ffffffffffffffffffffffffffffffffffffffff021916908373ffffffffffffffffffffffffffffffffffffffff160217905550505050505050565b600360003373ffffffffffffffffffffffffffffffffffffffff1673ffffffffffffffffffffffffffffffffffffffff16815260200190815260200160002060030160009054906101000a900460ff16610901576040517f08c379a00000000000000000000000000000000000000000000000000000000081526004016108f890612d61565b60405180910390fd5b6000600654905060005b600654811015610968578280519060200120600160008381526020019081526020016000206001016040516109409190612af7565b60405180910390200361095557809150610968565b808061096090612b3d565b91505061090b565b5060065481106109ad576040517f08c379a00000000000000000000000000000000000000000000000000000000081526004016109a490612bd1565b60405180910390fd5b6000600160008381526020019081526020016000209050600115158160080160009054906101000a900460ff16151514610a1c576040517f08c379a0000000000000000000000000000000000000000000000000000000008152600401610a1390612dcd565b60405180910390fd5b600073ffffffffffffffffffffffffffffffffffffffff168160040160009054906101000a900473ffffffffffffffffffffffffffffffffffffffff1673ffffffffffffffffffffffffffffffffffffffff1603610aaf576040517f08c379a0000000000000000000000000000000000000000000000000000000008152600401610aa690612e39565b60405180910390fd5b8060070154670de0b6b3a764000034610ac89190612e88565b14610b08576040517f08c379a0000000000000000000000000000000000000000000000000000000008152600401610aff90612f2b565b60405180910390fd5b60008160040160009054906101000a900473ffffffffffffffffffffffffffffffffffffffff1690508073ffffffffffffffffffffffffffffffffffffffff166108fc349081150290604051600060405180830381858888f19350505050158015610b77573d6000803e3d6000fd5b5060016000806101000a81548160ff0219169083151502179055506000600260008460040160009054906101000a900473ffffffffffffffffffffffffffffffffffffffff1673ffffffffffffffffffffffffffffffffffffffff1673ffffffffffffffffffffffffffffffffffffffff1681526020019081526020016000209050806001016000815480929190610c0e90612f4b565b9190505550610c1d853361046b565b60008060006101000a81548160ff02191690831515021790555060008360080160006101000a81548160ff0219169083151502179055505050505050565b60076020528060005260406000206000915090505481565b60095481565b600360003373ffffffffffffffffffffffffffffffffffffffff1673ffffffffffffffffffffffffffffffffffffffff16815260200190815260200160002060030160009054906101000a900460ff1615610d09576040517f08c379a0000000000000000000000000000000000000000000000000000000008152600401610d0090612fc0565b60405180910390fd5b604051806080016040528084815260200183815260200182815260200160011515815250600360003373ffffffffffffffffffffffffffffffffffffffff1673ffffffffffffffffffffffffffffffffffffffff1681526020019081526020016000206000820151816000019081610d81919061318c565b50602082015181600101556040820151816002019081610da1919061318c565b5060608201518160030160006101000a81548160ff02191690831515021790555090505082600560003373ffffffffffffffffffffffffffffffffffffffff1673ffffffffffffffffffffffffffffffffffffffff1681526020019081526020016000209081610e11919061318c565b50505050565b60606000600654905060005b600654811015610e8057838051906020012060016000838152602001908152602001600020600101604051610e589190612af7565b604051809103902003610e6d57809150610e80565b8080610e7890612b3d565b915050610e23565b506006548110610ec5576040517f08c379a0000000000000000000000000000000000000000000000000000000008152600401610ebc90612bd1565b60405180910390fd5b60006001600083815260200190815260200160002090506000816006015467ffffffffffffffff811115610efc57610efb612012565b5b604051908082528060200260200182016040528015610f2a5781602001602082028036833780820191505090505b50905060005b8260060154811015610fe357826005016000828152602001908152602001600020600085815260200190815260200160002060009054906101000a900473ffffffffffffffffffffffffffffffffffffffff16828281518110610f9657610f95612c83565b5b602002602001019073ffffffffffffffffffffffffffffffffffffffff16908173ffffffffffffffffffffffffffffffffffffffff16815250508080610fdb90612b3d565b915050610f30565b50809350505050919050565b6000600260008373ffffffffffffffffffffffffffffffffffffffff1673ffffffffffffffffffffffffffffffffffffffff168152602001908152602001600020905060006001600060065481526020019081526020016000209050600654816000018190555085816001019081611067919061318c565b5084816002019081611079919061318c565b50838160030181905550828160040160006101000a81548173ffffffffffffffffffffffffffffffffffffffff021916908373ffffffffffffffffffffffffffffffffffffffff16021790555060018160060181905550828160050160008081526020019081526020016000206000600654815260200190815260200160002060006101000a81548173ffffffffffffffffffffffffffffffffffffffff021916908373ffffffffffffffffffffffffffffffffffffffff1602179055506006600081548092919061114a90612b3d565b919050555081600101600081548092919061116490612b3d565b9190505550600460008473ffffffffffffffffffffffffffffffffffffffff1673ffffffffffffffffffffffffffffffffffffffff16815260200190815260200160002081600001549080600181540180825580915050600190039060005260206000200160009091909190915055505050505050565b60036020528060005260406000206000915090508060000180546111fe90612a23565b80601f016020809104026020016040519081016040528092919081815260200182805461122a90612a23565b80156112775780601f1061124c57610100808354040283529160200191611277565b820191906000526020600020905b81548152906001019060200180831161125a57829003601f168201915b50505050509080600101549080600201805461129290612a23565b80601f01602080910402602001604051908101604052809291908181526020018280546112be90612a23565b801561130b5780601f106112e05761010080835404028352916020019161130b565b820191906000526020600020905b8154815290600101906020018083116112ee57829003601f168201915b5050505050908060030160009054906101000a900460ff16905084565b600360003373ffffffffffffffffffffffffffffffffffffffff1673ffffffffffffffffffffffffffffffffffffffff16815260200190815260200160002060030160009054906101000a900460ff166113b7576040517f08c379a00000000000000000000000000000000000000000000000000000000081526004016113ae90612d61565b60405180910390fd5b6000600260003373ffffffffffffffffffffffffffffffffffffffff1673ffffffffffffffffffffffffffffffffffffffff16815260200190815260200160002090506000600654905060005b600654811015611461578480519060200120600160008381526020019081526020016000206001016040516114399190612af7565b60405180910390200361144e57809150611461565b808061145990612b3d565b915050611404565b5060065481106114a6576040517f08c379a000000000000000000000000000000000000000000000000000000000815260040161149d90612bd1565b60405180910390fd5b60006001600083815260200190815260200160002090503373ffffffffffffffffffffffffffffffffffffffff168160040160009054906101000a900473ffffffffffffffffffffffffffffffffffffffff1673ffffffffffffffffffffffffffffffffffffffff161461154f576040517f08c379a0000000000000000000000000000000000000000000000000000000008152600401611546906132d0565b60405180910390fd5b83816007018190555060018160080160006101000a81548160ff0219169083151502179055508160076000600954815260200190815260200160002081905550600160095461159e91906132f0565b6009819055508060080160009054906101000a900460ff161580156115c35750600084115b156115ef5783816007018190555060018160080160006101000a81548160ff0219169083151502179055505b5050505050565b60026020528060005260406000206000915090508060000160009054906101000a900473ffffffffffffffffffffffffffffffffffffffff16908060010154905082565b600160205280600052604060002060009150905080600001549080600101805461166390612a23565b80601f016020809104026020016040519081016040528092919081815260200182805461168f90612a23565b80156116dc5780601f106116b1576101008083540402835291602001916116dc565b820191906000526020600020905b8154815290600101906020018083116116bf57829003601f168201915b5050505050908060020180546116f190612a23565b80601f016020809104026020016040519081016040528092919081815260200182805461171d90612a23565b801561176a5780601f1061173f5761010080835404028352916020019161176a565b820191906000526020600020905b81548152906001019060200180831161174d57829003601f168201915b5050505050908060030154908060040160009054906101000a900473ffffffffffffffffffffffffffffffffffffffff16908060060154908060070154908060080160009054906101000a900460ff16905088565b6060600060065467ffffffffffffffff8111156117df576117de612012565b5b60405190808252806020026020018201604052801561180d5781602001602082028036833780820191505090505b5090506000805b60065481101561188f57600115156001600083815260200190815260200160002060080160009054906101000a900460ff1615150361187c578083838151811061186157611860612c83565b5b602002602001018181525050818061187890612b3d565b9250505b808061188790612b3d565b915050611814565b5060008167ffffffffffffffff8111156118ac576118ab612012565b5b6040519080825280602002602001820160405280156118da5781602001602082028036833780820191505090505b50905060005b82811015611935578381815181106118fb576118fa612c83565b5b602002602001015182828151811061191657611915612c83565b5b602002602001018181525050808061192d90612b3d565b9150506118e0565b5080935050505090565b606060006060600360008573ffffffffffffffffffffffffffffffffffffffff1673ffffffffffffffffffffffffffffffffffffffff16815260200190815260200160002060030160009054906101000a900460ff166119d4576040517f08c379a00000000000000000000000000000000000000000000000000000000081526004016119cb90612d61565b60405180910390fd5b600360008573ffffffffffffffffffffffffffffffffffffffff1673ffffffffffffffffffffffffffffffffffffffff168152602001908152602001600020600001600360008673ffffffffffffffffffffffffffffffffffffffff1673ffffffffffffffffffffffffffffffffffffffff16815260200190815260200160002060010154600360008773ffffffffffffffffffffffffffffffffffffffff1673ffffffffffffffffffffffffffffffffffffffff168152602001908152602001600020600201828054611aa790612a23565b80601f0160208091040260200160405190810160405280929190818152602001828054611ad390612a23565b8015611b205780601f10611af557610100808354040283529160200191611b20565b820191906000526020600020905b815481529060010190602001808311611b0357829003601f168201915b50505050509250808054611b3390612a23565b80601f0160208091040260200160405190810160405280929190818152602001828054611b5f90612a23565b8015611bac5780601f10611b8157610100808354040283529160200191611bac565b820191906000526020600020905b815481529060010190602001808311611b8f57829003601f168201915b505050505090509250925092509193909250565b6060600060095467ffffffffffffffff811115611be057611bdf612012565b5b604051908082528060200260200182016040528015611c1957816020015b611c06611f80565b815260200190600190039081611bfe5790505b5090506000805b600954811015611f46576040518060a0016040528060016000600760008681526020019081526020016000205481526020019081526020016000206002018054611c6990612a23565b80601f0160208091040260200160405190810160405280929190818152602001828054611c9590612a23565b8015611ce25780601f10611cb757610100808354040283529160200191611ce2565b820191906000526020600020905b815481529060010190602001808311611cc557829003601f168201915b50505050508152602001600160006007600086815260200190815260200160002054815260200190815260200160002060030154815260200160016000600760008681526020019081526020016000205481526020019081526020016000206001018054611d4f90612a23565b80601f0160208091040260200160405190810160405280929190818152602001828054611d7b90612a23565b8015611dc85780601f10611d9d57610100808354040283529160200191611dc8565b820191906000526020600020905b815481529060010190602001808311611dab57829003601f168201915b5050505050815260200160056000600160006007600088815260200190815260200160002054815260200190815260200160002060040160009054906101000a900473ffffffffffffffffffffffffffffffffffffffff1673ffffffffffffffffffffffffffffffffffffffff1673ffffffffffffffffffffffffffffffffffffffff1681526020019081526020016000208054611e6590612a23565b80601f0160208091040260200160405190810160405280929190818152602001828054611e9190612a23565b8015611ede5780601f10611eb357610100808354040283529160200191611ede565b820191906000526020600020905b815481529060010190602001808311611ec157829003601f168201915b50505050508152602001600160006007600086815260200190815260200160002054815260200190815260200160002060070154815250838281518110611f2857611f27612c83565b5b60200260200101819052508080611f3e90612b3d565b915050611c20565b50819250505090565b60046020528160005260406000208181548110611f6b57600080fd5b90600052602060002001600091509150505481565b6040518060a0016040528060608152602001600081526020016060815260200160608152602001600081525090565b6000819050919050565b611fc281611faf565b82525050565b6000602082019050611fdd6000830184611fb9565b92915050565b6000604051905090565b600080fd5b600080fd5b600080fd5b600080fd5b6000601f19601f8301169050919050565b7f4e487b7100000000000000000000000000000000000000000000000000000000600052604160045260246000fd5b61204a82612001565b810181811067ffffffffffffffff8211171561206957612068612012565b5b80604052505050565b600061207c611fe3565b90506120888282612041565b919050565b600067ffffffffffffffff8211156120a8576120a7612012565b5b6120b182612001565b9050602081019050919050565b82818337600083830152505050565b60006120e06120db8461208d565b612072565b9050828152602081018484840111156120fc576120fb611ffc565b5b6121078482856120be565b509392505050565b600082601f83011261212457612123611ff7565b5b81356121348482602086016120cd565b91505092915050565b600073ffffffffffffffffffffffffffffffffffffffff82169050919050565b60006121688261213d565b9050919050565b6121788161215d565b811461218357600080fd5b50565b6000813590506121958161216f565b92915050565b600080604083850312156121b2576121b1611fed565b5b600083013567ffffffffffffffff8111156121d0576121cf611ff2565b5b6121dc8582860161210f565b92505060206121ed85828601612186565b9150509250929050565b60006020828403121561220d5761220c611fed565b5b600082013567ffffffffffffffff81111561222b5761222a611ff2565b5b6122378482850161210f565b91505092915050565b61224981611faf565b811461225457600080fd5b50565b60008135905061226681612240565b92915050565b60006020828403121561228257612281611fed565b5b600061229084828501612257565b91505092915050565b6000806000606084860312156122b2576122b1611fed565b5b600084013567ffffffffffffffff8111156122d0576122cf611ff2565b5b6122dc8682870161210f565b93505060206122ed86828701612257565b925050604084013567ffffffffffffffff81111561230e5761230d611ff2565b5b61231a8682870161210f565b9150509250925092565b600081519050919050565b600082825260208201905092915050565b6000819050602082019050919050565b6123598161215d565b82525050565b600061236b8383612350565b60208301905092915050565b6000602082019050919050565b600061238f82612324565b612399818561232f565b93506123a483612340565b8060005b838110156123d55781516123bc888261235f565b97506123c783612377565b9250506001810190506123a8565b5085935050505092915050565b600060208201905081810360008301526123fc8184612384565b905092915050565b6000806000806080858703121561241e5761241d611fed565b5b600085013567ffffffffffffffff81111561243c5761243b611ff2565b5b6124488782880161210f565b945050602085013567ffffffffffffffff81111561246957612468611ff2565b5b6124758782880161210f565b935050604061248687828801612257565b925050606061249787828801612186565b91505092959194509250565b6000602082840312156124b9576124b8611fed565b5b60006124c784828501612186565b91505092915050565b600081519050919050565b600082825260208201905092915050565b60005b8381101561250a5780820151818401526020810190506124ef565b60008484015250505050565b6000612521826124d0565b61252b81856124db565b935061253b8185602086016124ec565b61254481612001565b840191505092915050565b60008115159050919050565b6125648161254f565b82525050565b600060808201905081810360008301526125848187612516565b90506125936020830186611fb9565b81810360408301526125a58185612516565b90506125b4606083018461255b565b95945050505050565b600080604083850312156125d4576125d3611fed565b5b600083013567ffffffffffffffff8111156125f2576125f1611ff2565b5b6125fe8582860161210f565b925050602061260f85828601612257565b9150509250929050565b6126228161215d565b82525050565b600060408201905061263d6000830185612619565b61264a6020830184611fb9565b9392505050565b600061010082019050612667600083018b611fb9565b8181036020830152612679818a612516565b9050818103604083015261268d8189612516565b905061269c6060830188611fb9565b6126a96080830187612619565b6126b660a0830186611fb9565b6126c360c0830185611fb9565b6126d060e083018461255b565b9998505050505050505050565b600081519050919050565b600082825260208201905092915050565b6000819050602082019050919050565b61271281611faf565b82525050565b60006127248383612709565b60208301905092915050565b6000602082019050919050565b6000612748826126dd565b61275281856126e8565b935061275d836126f9565b8060005b8381101561278e5781516127758882612718565b975061278083612730565b925050600181019050612761565b5085935050505092915050565b600060208201905081810360008301526127b5818461273d565b905092915050565b600060608201905081810360008301526127d78186612516565b90506127e66020830185611fb9565b81810360408301526127f88184612516565b9050949350505050565b600081519050919050565b600082825260208201905092915050565b6000819050602082019050919050565b600082825260208201905092915050565b600061284a826124d0565b612854818561282e565b93506128648185602086016124ec565b61286d81612001565b840191505092915050565b600060a0830160008301518482036000860152612895828261283f565b91505060208301516128aa6020860182612709565b50604083015184820360408601526128c2828261283f565b915050606083015184820360608601526128dc828261283f565b91505060808301516128f16080860182612709565b508091505092915050565b60006129088383612878565b905092915050565b6000602082019050919050565b600061292882612802565b612932818561280d565b9350836020820285016129448561281e565b8060005b85811015612980578484038952815161296185826128fc565b945061296c83612910565b925060208a01995050600181019050612948565b50829750879550505050505092915050565b600060208201905081810360008301526129ac818461291d565b905092915050565b600080604083850312156129cb576129ca611fed565b5b60006129d985828601612186565b92505060206129ea85828601612257565b9150509250929050565b7f4e487b7100000000000000000000000000000000000000000000000000000000600052602260045260246000fd5b60006002820490506001821680612a3b57607f821691505b602082108103612a4e57612a4d6129f4565b5b50919050565b600081905092915050565b60008190508160005260206000209050919050565b60008154612a8181612a23565b612a8b8186612a54565b94506001821660008114612aa65760018114612abb57612aee565b60ff1983168652811515820286019350612aee565b612ac485612a5f565b60005b83811015612ae657815481890152600182019150602081019050612ac7565b838801955050505b50505092915050565b6000612b038284612a74565b915081905092915050565b7f4e487b7100000000000000000000000000000000000000000000000000000000600052601160045260246000fd5b6000612b4882611faf565b91507fffffffffffffffffffffffffffffffffffffffffffffffffffffffffffffffff8203612b7a57612b79612b0e565b5b600182019050919050565b7f496e76616c6964204e756d62657220706c617465000000000000000000000000600082015250565b6000612bbb6014836124db565b9150612bc682612b85565b602082019050919050565b60006020820190508181036000830152612bea81612bae565b9050919050565b7f4f6e6c79207468652063757272656e74206f776e65722063616e207472616e7360008201527f666572207468652076656869636c650000000000000000000000000000000000602082015250565b6000612c4d602f836124db565b9150612c5882612bf1565b604082019050919050565b60006020820190508181036000830152612c7c81612c40565b9050919050565b7f4e487b7100000000000000000000000000000000000000000000000000000000600052603260045260246000fd5b6000612cbd82611faf565b9150612cc883611faf565b9250828203905081811115612ce057612cdf612b0e565b5b92915050565b7f4e487b7100000000000000000000000000000000000000000000000000000000600052603160045260246000fd5b7f5573657220646f6573206e6f7420657869737400000000000000000000000000600082015250565b6000612d4b6013836124db565b9150612d5682612d15565b602082019050919050565b60006020820190508181036000830152612d7a81612d3e565b9050919050565b7f56656869636c65206e6f7420666f722073616c65000000000000000000000000600082015250565b6000612db76014836124db565b9150612dc282612d81565b602082019050919050565b60006020820190508181036000830152612de681612daa565b9050919050565b7f56656869636c6520646f6573206e6f7420657869737400000000000000000000600082015250565b6000612e236016836124db565b9150612e2e82612ded565b602082019050919050565b60006020820190508181036000830152612e5281612e16565b9050919050565b7f4e487b7100000000000000000000000000000000000000000000000000000000600052601260045260246000fd5b6000612e9382611faf565b9150612e9e83611faf565b925082612eae57612ead612e59565b5b828204905092915050565b7f496e73756666696369656e742066756e647320746f206275792074686520766560008201527f6869636c65000000000000000000000000000000000000000000000000000000602082015250565b6000612f156025836124db565b9150612f2082612eb9565b604082019050919050565b60006020820190508181036000830152612f4481612f08565b9050919050565b6000612f5682611faf565b915060008203612f6957612f68612b0e565b5b600182039050919050565b7f5573657220616c72656164792065786973747300000000000000000000000000600082015250565b6000612faa6013836124db565b9150612fb582612f74565b602082019050919050565b60006020820190508181036000830152612fd981612f9d565b9050919050565b60008190508160005260206000209050919050565b60006020601f8301049050919050565b600082821b905092915050565b6000600883026130427fffffffffffffffffffffffffffffffffffffffffffffffffffffffffffffffff82613005565b61304c8683613005565b95508019841693508086168417925050509392505050565b6000819050919050565b600061308961308461307f84611faf565b613064565b611faf565b9050919050565b6000819050919050565b6130a38361306e565b6130b76130af82613090565b848454613012565b825550505050565b600090565b6130cc6130bf565b6130d781848461309a565b505050565b5b818110156130fb576130f06000826130c4565b6001810190506130dd565b5050565b601f8211156131405761311181612fe0565b61311a84612ff5565b81016020851015613129578190505b61313d61313585612ff5565b8301826130dc565b50505b505050565b600082821c905092915050565b600061316360001984600802613145565b1980831691505092915050565b600061317c8383613152565b9150826002028217905092915050565b613195826124d0565b67ffffffffffffffff8111156131ae576131ad612012565b5b6131b88254612a23565b6131c38282856130ff565b600060209050601f8311600181146131f657600084156131e4578287015190505b6131ee8582613170565b865550613256565b601f19841661320486612fe0565b60005b8281101561322c57848901518255600182019150602085019450602081019050613207565b868310156132495784890151613245601f891682613152565b8355505b6001600288020188555050505b505050505050565b7f4f6e6c79207468652063757272656e74206f776e65722063616e20736574207460008201527f6865207072696365206f66207468652076656869636c65000000000000000000602082015250565b60006132ba6037836124db565b91506132c58261325e565b604082019050919050565b600060208201905081810360008301526132e9816132ad565b9050919050565b60006132fb82611faf565b915061330683611faf565b925082820190508082111561331e5761331d612b0e565b5b9291505056fea26469706673582212204899f7054ba322c9e01f8499500dc002f68a74b7bd4a45a27179418be0cd4aa064736f6c63430008130033",
  "linkReferences": {},
  "deployedLinkReferences": {}
}